{
  "address": "0x20eA72dDFcB0A9Ca2bCD1636022E209fb856Ac7C",
  "abi": [
    {
      "inputs": [
        {
          "internalType": "string",
          "name": "defaultBaseUri",
          "type": "string"
        },
        {
          "internalType": "address",
          "name": "royaltyReciver",
          "type": "address"
        }
      ],
      "stateMutability": "nonpayable",
      "type": "constructor"
    },
    {
      "inputs": [],
      "name": "ApprovalCallerNotOwnerNorApproved",
      "type": "error"
    },
    {
      "inputs": [],
      "name": "ApprovalQueryForNonexistentToken",
      "type": "error"
    },
    {
      "inputs": [],
      "name": "ApproveToCaller",
      "type": "error"
    },
    {
      "inputs": [],
      "name": "BalanceQueryForZeroAddress",
      "type": "error"
    },
    {
      "inputs": [],
      "name": "MintERC2309QuantityExceedsLimit",
      "type": "error"
    },
    {
      "inputs": [],
      "name": "MintToZeroAddress",
      "type": "error"
    },
    {
      "inputs": [],
      "name": "MintZeroQuantity",
      "type": "error"
    },
    {
      "inputs": [],
      "name": "Movebirds__IncorrectValue",
      "type": "error"
    },
    {
      "inputs": [],
      "name": "Movebirds__InvalidSigner",
      "type": "error"
    },
    {
      "inputs": [],
      "name": "Movebirds__OutOfMaxPerWallet",
      "type": "error"
    },
    {
      "inputs": [],
      "name": "Movebirds__SoldOut",
      "type": "error"
    },
    {
      "inputs": [
        {
          "internalType": "uint256",
          "name": "stage",
          "type": "uint256"
        }
      ],
      "name": "Movebirds__StageNotStartedYet",
      "type": "error"
    },
    {
      "inputs": [],
      "name": "OwnerQueryForNonexistentToken",
      "type": "error"
    },
    {
      "inputs": [],
      "name": "OwnershipNotInitializedForExtraData",
      "type": "error"
    },
    {
      "inputs": [],
      "name": "TransferCallerNotOwnerNorApproved",
      "type": "error"
    },
    {
      "inputs": [],
      "name": "TransferFromIncorrectOwner",
      "type": "error"
    },
    {
      "inputs": [],
      "name": "TransferToNonERC721ReceiverImplementer",
      "type": "error"
    },
    {
      "inputs": [],
      "name": "TransferToZeroAddress",
      "type": "error"
    },
    {
      "inputs": [],
      "name": "URIQueryForNonexistentToken",
      "type": "error"
    },
    {
      "anonymous": false,
      "inputs": [
        {
          "indexed": true,
          "internalType": "address",
          "name": "owner",
          "type": "address"
        },
        {
          "indexed": true,
          "internalType": "address",
          "name": "approved",
          "type": "address"
        },
        {
          "indexed": true,
          "internalType": "uint256",
          "name": "tokenId",
          "type": "uint256"
        }
      ],
      "name": "Approval",
      "type": "event"
    },
    {
      "anonymous": false,
      "inputs": [
        {
          "indexed": true,
          "internalType": "address",
          "name": "owner",
          "type": "address"
        },
        {
          "indexed": true,
          "internalType": "address",
          "name": "operator",
          "type": "address"
        },
        {
          "indexed": false,
          "internalType": "bool",
          "name": "approved",
          "type": "bool"
        }
      ],
      "name": "ApprovalForAll",
      "type": "event"
    },
    {
      "anonymous": false,
      "inputs": [
        {
          "indexed": true,
          "internalType": "uint256",
          "name": "fromTokenId",
          "type": "uint256"
        },
        {
          "indexed": false,
          "internalType": "uint256",
          "name": "toTokenId",
          "type": "uint256"
        },
        {
          "indexed": true,
          "internalType": "address",
          "name": "from",
          "type": "address"
        },
        {
          "indexed": true,
          "internalType": "address",
          "name": "to",
          "type": "address"
        }
      ],
      "name": "ConsecutiveTransfer",
      "type": "event"
    },
    {
      "anonymous": false,
      "inputs": [
        {
          "indexed": true,
          "internalType": "address",
          "name": "previousOwner",
          "type": "address"
        },
        {
          "indexed": true,
          "internalType": "address",
          "name": "newOwner",
          "type": "address"
        }
      ],
      "name": "OwnershipTransferred",
      "type": "event"
    },
    {
      "anonymous": false,
      "inputs": [
        {
          "indexed": true,
          "internalType": "address",
          "name": "from",
          "type": "address"
        },
        {
          "indexed": true,
          "internalType": "address",
          "name": "to",
          "type": "address"
        },
        {
          "indexed": true,
          "internalType": "uint256",
          "name": "tokenId",
          "type": "uint256"
        }
      ],
      "name": "Transfer",
      "type": "event"
    },
    {
      "inputs": [
        {
          "internalType": "address",
          "name": "to",
          "type": "address"
        },
        {
          "internalType": "uint256",
          "name": "tokenId",
          "type": "uint256"
        }
      ],
      "name": "approve",
      "outputs": [],
      "stateMutability": "nonpayable",
      "type": "function"
    },
    {
      "inputs": [
        {
          "internalType": "address",
          "name": "owner",
          "type": "address"
        }
      ],
      "name": "balanceOf",
      "outputs": [
        {
          "internalType": "uint256",
          "name": "",
          "type": "uint256"
        }
      ],
      "stateMutability": "view",
      "type": "function"
    },
    {
      "inputs": [
        {
          "internalType": "uint256",
          "name": "tokenId",
          "type": "uint256"
        }
      ],
      "name": "getApproved",
      "outputs": [
        {
          "internalType": "address",
          "name": "",
          "type": "address"
        }
      ],
      "stateMutability": "view",
      "type": "function"
    },
    {
      "inputs": [
        {
          "internalType": "address",
          "name": "claimer",
          "type": "address"
        }
      ],
      "name": "getTokensCaimed",
      "outputs": [
        {
          "internalType": "uint256",
          "name": "",
          "type": "uint256"
        }
      ],
      "stateMutability": "view",
      "type": "function"
    },
    {
      "inputs": [
        {
          "internalType": "address",
          "name": "owner",
          "type": "address"
        },
        {
          "internalType": "address",
          "name": "operator",
          "type": "address"
        }
      ],
      "name": "isApprovedForAll",
      "outputs": [
        {
          "internalType": "bool",
          "name": "",
          "type": "bool"
        }
      ],
      "stateMutability": "view",
      "type": "function"
    },
    {
      "inputs": [],
      "name": "maxPerAddress",
      "outputs": [
        {
          "internalType": "uint256",
          "name": "",
          "type": "uint256"
        }
      ],
      "stateMutability": "view",
      "type": "function"
    },
    {
      "inputs": [],
      "name": "maxSupply",
      "outputs": [
        {
          "internalType": "uint256",
          "name": "",
          "type": "uint256"
        }
      ],
      "stateMutability": "view",
      "type": "function"
    },
    {
      "inputs": [
        {
          "internalType": "uint256",
          "name": "quantity",
          "type": "uint256"
        },
        {
          "internalType": "bytes32",
          "name": "_hash",
          "type": "bytes32"
        },
        {
          "internalType": "bytes",
          "name": "signature",
          "type": "bytes"
        }
      ],
      "name": "mintAllowlist",
      "outputs": [],
      "stateMutability": "payable",
      "type": "function"
    },
    {
      "inputs": [
        {
          "internalType": "uint256",
          "name": "quantity",
          "type": "uint256"
        }
      ],
      "name": "mintDev",
      "outputs": [],
      "stateMutability": "nonpayable",
      "type": "function"
    },
    {
      "inputs": [
        {
          "internalType": "uint256",
          "name": "quantity",
          "type": "uint256"
        }
      ],
      "name": "mintPublic",
      "outputs": [],
      "stateMutability": "payable",
      "type": "function"
    },
    {
      "inputs": [
        {
          "internalType": "uint256",
          "name": "quantity",
          "type": "uint256"
        },
        {
          "internalType": "bytes32",
          "name": "_hash",
          "type": "bytes32"
        },
        {
          "internalType": "bytes",
          "name": "signature",
          "type": "bytes"
        }
      ],
      "name": "mintWaitlist",
      "outputs": [],
      "stateMutability": "payable",
      "type": "function"
    },
    {
      "inputs": [],
      "name": "name",
      "outputs": [
        {
          "internalType": "string",
          "name": "",
          "type": "string"
        }
      ],
      "stateMutability": "view",
      "type": "function"
    },
    {
      "inputs": [],
      "name": "owner",
      "outputs": [
        {
          "internalType": "address",
          "name": "",
          "type": "address"
        }
      ],
      "stateMutability": "view",
      "type": "function"
    },
    {
      "inputs": [
        {
          "internalType": "uint256",
          "name": "tokenId",
          "type": "uint256"
        }
      ],
      "name": "ownerOf",
      "outputs": [
        {
          "internalType": "address",
          "name": "",
          "type": "address"
        }
      ],
      "stateMutability": "view",
      "type": "function"
    },
    {
      "inputs": [],
      "name": "renounceOwnership",
      "outputs": [],
      "stateMutability": "nonpayable",
      "type": "function"
    },
    {
      "inputs": [
        {
          "internalType": "uint256",
          "name": "_tokenId",
          "type": "uint256"
        },
        {
          "internalType": "uint256",
          "name": "_salePrice",
          "type": "uint256"
        }
      ],
      "name": "royaltyInfo",
      "outputs": [
        {
          "internalType": "address",
          "name": "",
          "type": "address"
        },
        {
          "internalType": "uint256",
          "name": "",
          "type": "uint256"
        }
      ],
      "stateMutability": "view",
      "type": "function"
    },
    {
      "inputs": [
        {
          "internalType": "address",
          "name": "from",
          "type": "address"
        },
        {
          "internalType": "address",
          "name": "to",
          "type": "address"
        },
        {
          "internalType": "uint256",
          "name": "tokenId",
          "type": "uint256"
        }
      ],
      "name": "safeTransferFrom",
      "outputs": [],
      "stateMutability": "nonpayable",
      "type": "function"
    },
    {
      "inputs": [
        {
          "internalType": "address",
          "name": "from",
          "type": "address"
        },
        {
          "internalType": "address",
          "name": "to",
          "type": "address"
        },
        {
          "internalType": "uint256",
          "name": "tokenId",
          "type": "uint256"
        },
        {
          "internalType": "bytes",
          "name": "_data",
          "type": "bytes"
        }
      ],
      "name": "safeTransferFrom",
      "outputs": [],
      "stateMutability": "nonpayable",
      "type": "function"
    },
    {
      "inputs": [],
      "name": "saleStage",
      "outputs": [
        {
          "internalType": "enum Movebirds.SaleStage",
          "name": "",
          "type": "uint8"
        }
      ],
      "stateMutability": "view",
      "type": "function"
    },
    {
      "inputs": [
        {
          "internalType": "address",
          "name": "signer",
          "type": "address"
        }
      ],
      "name": "setAllowlistSigner",
      "outputs": [],
      "stateMutability": "nonpayable",
      "type": "function"
    },
    {
      "inputs": [
        {
          "internalType": "address",
          "name": "operator",
          "type": "address"
        },
        {
          "internalType": "bool",
          "name": "approved",
          "type": "bool"
        }
      ],
      "name": "setApprovalForAll",
      "outputs": [],
      "stateMutability": "nonpayable",
      "type": "function"
    },
    {
      "inputs": [
        {
          "internalType": "address",
          "name": "receiver",
          "type": "address"
        },
        {
          "internalType": "uint96",
          "name": "feeNumerator",
          "type": "uint96"
        }
      ],
      "name": "setDefaultRoyalty",
      "outputs": [],
      "stateMutability": "nonpayable",
      "type": "function"
    },
    {
      "inputs": [
        {
          "internalType": "uint256",
          "name": "newMax",
          "type": "uint256"
        }
      ],
      "name": "setMaxPerAddress",
      "outputs": [],
      "stateMutability": "nonpayable",
      "type": "function"
    },
    {
      "inputs": [
        {
          "internalType": "uint256",
          "name": "newPrice",
          "type": "uint256"
        }
      ],
      "name": "setPrice",
      "outputs": [],
      "stateMutability": "nonpayable",
      "type": "function"
    },
    {
      "inputs": [
        {
          "internalType": "uint256",
          "name": "newStage",
          "type": "uint256"
        }
      ],
      "name": "setSaleStage",
      "outputs": [],
      "stateMutability": "nonpayable",
      "type": "function"
    },
    {
      "inputs": [
        {
          "internalType": "address",
          "name": "signer",
          "type": "address"
        }
      ],
      "name": "setWaitlistSigner",
      "outputs": [],
      "stateMutability": "nonpayable",
      "type": "function"
    },
    {
      "inputs": [
        {
          "internalType": "bytes4",
          "name": "interfaceId",
          "type": "bytes4"
        }
      ],
      "name": "supportsInterface",
      "outputs": [
        {
          "internalType": "bool",
          "name": "",
          "type": "bool"
        }
      ],
      "stateMutability": "view",
      "type": "function"
    },
    {
      "inputs": [],
      "name": "symbol",
      "outputs": [
        {
          "internalType": "string",
          "name": "",
          "type": "string"
        }
      ],
      "stateMutability": "view",
      "type": "function"
    },
    {
      "inputs": [],
      "name": "tokenPrice",
      "outputs": [
        {
          "internalType": "uint256",
          "name": "",
          "type": "uint256"
        }
      ],
      "stateMutability": "view",
      "type": "function"
    },
    {
      "inputs": [
        {
          "internalType": "uint256",
          "name": "tokenId",
          "type": "uint256"
        }
      ],
      "name": "tokenURI",
      "outputs": [
        {
          "internalType": "string",
          "name": "",
          "type": "string"
        }
      ],
      "stateMutability": "view",
      "type": "function"
    },
    {
      "inputs": [],
      "name": "totalSupply",
      "outputs": [
        {
          "internalType": "uint256",
          "name": "",
          "type": "uint256"
        }
      ],
      "stateMutability": "view",
      "type": "function"
    },
    {
      "inputs": [
        {
          "internalType": "address",
          "name": "from",
          "type": "address"
        },
        {
          "internalType": "address",
          "name": "to",
          "type": "address"
        },
        {
          "internalType": "uint256",
          "name": "tokenId",
          "type": "uint256"
        }
      ],
      "name": "transferFrom",
      "outputs": [],
      "stateMutability": "nonpayable",
      "type": "function"
    },
    {
      "inputs": [
        {
          "internalType": "address",
          "name": "newOwner",
          "type": "address"
        }
      ],
      "name": "transferOwnership",
      "outputs": [],
      "stateMutability": "nonpayable",
      "type": "function"
    }
  ],
  "transactionHash": "0x4ff41d4447d10385ab622d3d61e969ca7fc129af8bbb692bd7ab455e0c8ca0b6",
  "args": [
    "ipfs://ipfs/my",
    "0x87edE566125DBd8A4fc0E844ba251B80EB3DBD8b"
  ],
  "numDeployments": 1,
  "solcInputHash": "e8ee8aad6c132d6b8797ff511ec4c501",
  "bytecode": "0x6080604052600a600c556002600d556611c37937e08000600e556000601060146101000a81548160ff02191690836004811115620000425762000041620004be565b5b02179055503480156200005457600080fd5b50604051620046ac380380620046ac83398181016040528101906200007a9190620006ef565b6040518060400160405280600981526020017f4d6f7665626972647300000000000000000000000000000000000000000000008152506040518060400160405280600281526020017f4d420000000000000000000000000000000000000000000000000000000000008152508160029080519060200190620000fe9291906200040e565b508060039080519060200190620001179291906200040e565b50620001286200018d60201b60201c565b600081905550505062000150620001446200019260201b60201c565b6200019a60201b60201c565b6001600b819055506200016c816101f46200026060201b60201c565b8160119080519060200190620001849291906200040e565b505050620008d5565b600090565b600033905090565b6000600a60009054906101000a900473ffffffffffffffffffffffffffffffffffffffff16905081600a60006101000a81548173ffffffffffffffffffffffffffffffffffffffff021916908373ffffffffffffffffffffffffffffffffffffffff1602179055508173ffffffffffffffffffffffffffffffffffffffff168173ffffffffffffffffffffffffffffffffffffffff167f8be0079c531659141344cd1fd0a4f28419497f9722a3daafe3b4186f6b6457e060405160405180910390a35050565b620002706200040460201b60201c565b6bffffffffffffffffffffffff16816bffffffffffffffffffffffff161115620002d1576040517f08c379a0000000000000000000000000000000000000000000000000000000008152600401620002c890620007dc565b60405180910390fd5b600073ffffffffffffffffffffffffffffffffffffffff168273ffffffffffffffffffffffffffffffffffffffff16141562000344576040517f08c379a00000000000000000000000000000000000000000000000000000000081526004016200033b906200084e565b60405180910390fd5b60405180604001604052808373ffffffffffffffffffffffffffffffffffffffff168152602001826bffffffffffffffffffffffff16815250600860008201518160000160006101000a81548173ffffffffffffffffffffffffffffffffffffffff021916908373ffffffffffffffffffffffffffffffffffffffff16021790555060208201518160000160146101000a8154816bffffffffffffffffffffffff02191690836bffffffffffffffffffffffff1602179055509050505050565b6000612710905090565b8280546200041c906200089f565b90600052602060002090601f0160209004810192826200044057600085556200048c565b82601f106200045b57805160ff19168380011785556200048c565b828001600101855582156200048c579182015b828111156200048b5782518255916020019190600101906200046e565b5b5090506200049b91906200049f565b5090565b5b80821115620004ba576000816000905550600101620004a0565b5090565b7f4e487b7100000000000000000000000000000000000000000000000000000000600052602160045260246000fd5b6000604051905090565b600080fd5b600080fd5b600080fd5b600080fd5b6000601f19601f8301169050919050565b7f4e487b7100000000000000000000000000000000000000000000000000000000600052604160045260246000fd5b62000556826200050b565b810181811067ffffffffffffffff821117156200057857620005776200051c565b5b80604052505050565b60006200058d620004ed565b90506200059b82826200054b565b919050565b600067ffffffffffffffff821115620005be57620005bd6200051c565b5b620005c9826200050b565b9050602081019050919050565b60005b83811015620005f6578082015181840152602081019050620005d9565b8381111562000606576000848401525b50505050565b6000620006236200061d84620005a0565b62000581565b90508281526020810184848401111562000642576200064162000506565b5b6200064f848285620005d6565b509392505050565b600082601f8301126200066f576200066e62000501565b5b8151620006818482602086016200060c565b91505092915050565b600073ffffffffffffffffffffffffffffffffffffffff82169050919050565b6000620006b7826200068a565b9050919050565b620006c981620006aa565b8114620006d557600080fd5b50565b600081519050620006e981620006be565b92915050565b60008060408385031215620007095762000708620004f7565b5b600083015167ffffffffffffffff8111156200072a5762000729620004fc565b5b620007388582860162000657565b92505060206200074b85828601620006d8565b9150509250929050565b600082825260208201905092915050565b7f455243323938313a20726f79616c7479206665652077696c6c2065786365656460008201527f2073616c65507269636500000000000000000000000000000000000000000000602082015250565b6000620007c4602a8362000755565b9150620007d18262000766565b604082019050919050565b60006020820190508181036000830152620007f781620007b5565b9050919050565b7f455243323938313a20696e76616c696420726563656976657200000000000000600082015250565b60006200083660198362000755565b91506200084382620007fe565b602082019050919050565b60006020820190508181036000830152620008698162000827565b9050919050565b7f4e487b7100000000000000000000000000000000000000000000000000000000600052602260045260246000fd5b60006002820490506001821680620008b857607f821691505b60208210811415620008cf57620008ce62000870565b5b50919050565b613dc780620008e56000396000f3fe6080604052600436106101ee5760003560e01c80637bddd65b1161010d578063d5abeb01116100a0578063ed7c61f81161006f578063ed7c61f814610701578063efd0cbf91461071d578063f2fde38b14610739578063f72ba0fb14610762578063fba7d7cb1461078b576101ee565b8063d5abeb0114610654578063dadaaf6a1461067f578063e474def41461069b578063e985e9c5146106c4576101ee565b806395d89b41116100dc57806395d89b411461059a578063a22cb465146105c5578063b88d4fde146105ee578063c87b56dd14610617576101ee565b80637bddd65b146104f25780637ff9b5961461051b5780638da5cb5b1461054657806391b7f5ed14610571576101ee565b80632a55205a11610185578063639814e011610154578063639814e014610436578063677cb3a41461046157806370a082311461049e578063715018a6146104db576101ee565b80632a55205a1461036757806342842e0e146103a55780634aaca86d146103ce5780636352211e146103f9576101ee565b8063095ea7b3116101c1578063095ea7b3146102c157806311f8e678146102ea57806318160ddd1461031357806323b872dd1461033e576101ee565b806301ffc9a7146101f357806304634d8d1461023057806306fdde0314610259578063081812fc14610284575b600080fd5b3480156101ff57600080fd5b5061021a60048036038101906102159190612dcc565b6107b4565b6040516102279190612e14565b60405180910390f35b34801561023c57600080fd5b5061025760048036038101906102529190612ed1565b6107c6565b005b34801561026557600080fd5b5061026e6107dc565b60405161027b9190612faa565b60405180910390f35b34801561029057600080fd5b506102ab60048036038101906102a69190613002565b61086e565b6040516102b8919061303e565b60405180910390f35b3480156102cd57600080fd5b506102e860048036038101906102e39190613059565b6108ed565b005b3480156102f657600080fd5b50610311600480360381019061030c9190613002565b610a31565b005b34801561031f57600080fd5b50610328610a78565b60405161033591906130a8565b60405180910390f35b34801561034a57600080fd5b50610365600480360381019061036091906130c3565b610a8f565b005b34801561037357600080fd5b5061038e60048036038101906103899190613116565b610db4565b60405161039c929190613156565b60405180910390f35b3480156103b157600080fd5b506103cc60048036038101906103c791906130c3565b610f9f565b005b3480156103da57600080fd5b506103e3610fbf565b6040516103f091906131f6565b60405180910390f35b34801561040557600080fd5b50610420600480360381019061041b9190613002565b610fd2565b60405161042d919061303e565b60405180910390f35b34801561044257600080fd5b5061044b610fe4565b60405161045891906130a8565b60405180910390f35b34801561046d57600080fd5b5061048860048036038101906104839190613211565b610fea565b60405161049591906130a8565b60405180910390f35b3480156104aa57600080fd5b506104c560048036038101906104c09190613211565b611033565b6040516104d291906130a8565b60405180910390f35b3480156104e757600080fd5b506104f06110ec565b005b3480156104fe57600080fd5b5061051960048036038101906105149190613002565b611100565b005b34801561052757600080fd5b50610530611112565b60405161053d91906130a8565b60405180910390f35b34801561055257600080fd5b5061055b611118565b604051610568919061303e565b60405180910390f35b34801561057d57600080fd5b5061059860048036038101906105939190613002565b611142565b005b3480156105a657600080fd5b506105af611154565b6040516105bc9190612faa565b60405180910390f35b3480156105d157600080fd5b506105ec60048036038101906105e7919061326a565b6111e6565b005b3480156105fa57600080fd5b50610615600480360381019061061091906133df565b61135e565b005b34801561062357600080fd5b5061063e60048036038101906106399190613002565b6113d1565b60405161064b9190612faa565b60405180910390f35b34801561066057600080fd5b50610669611470565b60405161067691906130a8565b60405180910390f35b61069960048036038101906106949190613498565b611476565b005b3480156106a757600080fd5b506106c260048036038101906106bd9190613211565b6116f3565b005b3480156106d057600080fd5b506106eb60048036038101906106e69190613507565b61173f565b6040516106f89190612e14565b60405180910390f35b61071b60048036038101906107169190613498565b6117d3565b005b61073760048036038101906107329190613002565b611a50565b005b34801561074557600080fd5b50610760600480360381019061075b9190613211565b611c68565b005b34801561076e57600080fd5b5061078960048036038101906107849190613211565b611cec565b005b34801561079757600080fd5b506107b260048036038101906107ad9190613002565b611d38565b005b60006107bf82611d9a565b9050919050565b6107ce611e14565b6107d88282611e92565b5050565b6060600280546107eb90613576565b80601f016020809104026020016040519081016040528092919081815260200182805461081790613576565b80156108645780601f1061083957610100808354040283529160200191610864565b820191906000526020600020905b81548152906001019060200180831161084757829003601f168201915b5050505050905090565b600061087982612028565b6108af576040517fcf4700e400000000000000000000000000000000000000000000000000000000815260040160405180910390fd5b6006600083815260200190815260200160002060000160009054906101000a900473ffffffffffffffffffffffffffffffffffffffff169050919050565b60006108f882610fd2565b90508073ffffffffffffffffffffffffffffffffffffffff16610919612087565b73ffffffffffffffffffffffffffffffffffffffff161461097c5761094581610940612087565b61173f565b61097b576040517fcfb3b94200000000000000000000000000000000000000000000000000000000815260040160405180910390fd5b5b826006600084815260200190815260200160002060000160006101000a81548173ffffffffffffffffffffffffffffffffffffffff021916908373ffffffffffffffffffffffffffffffffffffffff160217905550818373ffffffffffffffffffffffffffffffffffffffff168273ffffffffffffffffffffffffffffffffffffffff167f8c5be1e5ebec7d5bd14f71427d1e84f3dd0314c0f7b2291e5b200ac8c7c3b92560405160405180910390a4505050565b610a39611e14565b806004811115610a4c57610a4b61317f565b5b601060146101000a81548160ff02191690836004811115610a7057610a6f61317f565b5b021790555050565b6000610a8261208f565b6001546000540303905090565b6000610a9a82612094565b90508373ffffffffffffffffffffffffffffffffffffffff168173ffffffffffffffffffffffffffffffffffffffff1614610b01576040517fa114810000000000000000000000000000000000000000000000000000000000815260040160405180910390fd5b600080610b0d84612162565b91509150610b238187610b1e612087565b612189565b610b6f57610b3886610b33612087565b61173f565b610b6e576040517f59c896be00000000000000000000000000000000000000000000000000000000815260040160405180910390fd5b5b600073ffffffffffffffffffffffffffffffffffffffff168573ffffffffffffffffffffffffffffffffffffffff161415610bd6576040517fea553b3400000000000000000000000000000000000000000000000000000000815260040160405180910390fd5b610be386868660016121cd565b8015610bee57600082555b600560008773ffffffffffffffffffffffffffffffffffffffff1673ffffffffffffffffffffffffffffffffffffffff168152602001908152602001600020600081546001900391905081905550600560008673ffffffffffffffffffffffffffffffffffffffff1673ffffffffffffffffffffffffffffffffffffffff1681526020019081526020016000206000815460010191905081905550610cbc85610c988888876121d3565b7c0200000000000000000000000000000000000000000000000000000000176121fb565b600460008681526020019081526020016000208190555060007c020000000000000000000000000000000000000000000000000000000084161415610d44576000600185019050600060046000838152602001908152602001600020541415610d42576000548114610d41578360046000838152602001908152602001600020819055505b5b505b838573ffffffffffffffffffffffffffffffffffffffff168773ffffffffffffffffffffffffffffffffffffffff167fddf252ad1be2c89b69c2b068fc378daa952ba7f163c4a11628f55a4df523b3ef60405160405180910390a4610dac8686866001612226565b505050505050565b6000806000600960008681526020019081526020016000206040518060400160405290816000820160009054906101000a900473ffffffffffffffffffffffffffffffffffffffff1673ffffffffffffffffffffffffffffffffffffffff1673ffffffffffffffffffffffffffffffffffffffff1681526020016000820160149054906101000a90046bffffffffffffffffffffffff166bffffffffffffffffffffffff166bffffffffffffffffffffffff16815250509050600073ffffffffffffffffffffffffffffffffffffffff16816000015173ffffffffffffffffffffffffffffffffffffffff161415610f4a5760086040518060400160405290816000820160009054906101000a900473ffffffffffffffffffffffffffffffffffffffff1673ffffffffffffffffffffffffffffffffffffffff1673ffffffffffffffffffffffffffffffffffffffff1681526020016000820160149054906101000a90046bffffffffffffffffffffffff166bffffffffffffffffffffffff166bffffffffffffffffffffffff168152505090505b6000610f5461222c565b6bffffffffffffffffffffffff1682602001516bffffffffffffffffffffffff1686610f8091906135d7565b610f8a9190613660565b90508160000151819350935050509250929050565b610fba8383836040518060200160405280600081525061135e565b505050565b601060149054906101000a900460ff1681565b6000610fdd82612094565b9050919050565b600d5481565b6000601260008373ffffffffffffffffffffffffffffffffffffffff1673ffffffffffffffffffffffffffffffffffffffff168152602001908152602001600020549050919050565b60008073ffffffffffffffffffffffffffffffffffffffff168273ffffffffffffffffffffffffffffffffffffffff16141561109b576040517f8f4eb60400000000000000000000000000000000000000000000000000000000815260040160405180910390fd5b67ffffffffffffffff600560008473ffffffffffffffffffffffffffffffffffffffff1673ffffffffffffffffffffffffffffffffffffffff16815260200190815260200160002054169050919050565b6110f4611e14565b6110fe6000612236565b565b611108611e14565b80600d8190555050565b600e5481565b6000600a60009054906101000a900473ffffffffffffffffffffffffffffffffffffffff16905090565b61114a611e14565b80600e8190555050565b60606003805461116390613576565b80601f016020809104026020016040519081016040528092919081815260200182805461118f90613576565b80156111dc5780601f106111b1576101008083540402835291602001916111dc565b820191906000526020600020905b8154815290600101906020018083116111bf57829003601f168201915b5050505050905090565b6111ee612087565b73ffffffffffffffffffffffffffffffffffffffff168273ffffffffffffffffffffffffffffffffffffffff161415611253576040517fb06307db00000000000000000000000000000000000000000000000000000000815260040160405180910390fd5b8060076000611260612087565b73ffffffffffffffffffffffffffffffffffffffff1673ffffffffffffffffffffffffffffffffffffffff16815260200190815260200160002060008473ffffffffffffffffffffffffffffffffffffffff1673ffffffffffffffffffffffffffffffffffffffff16815260200190815260200160002060006101000a81548160ff0219169083151502179055508173ffffffffffffffffffffffffffffffffffffffff1661130d612087565b73ffffffffffffffffffffffffffffffffffffffff167f17307eab39ab6107e8899845ad3d59bd9653f200f220920489ca2b5937696c31836040516113529190612e14565b60405180910390a35050565b611369848484610a8f565b60008373ffffffffffffffffffffffffffffffffffffffff163b146113cb57611394848484846122fc565b6113ca576040517fd1a57ed600000000000000000000000000000000000000000000000000000000815260040160405180910390fd5b5b50505050565b60606113dc82612028565b611412576040517fa14c4b5000000000000000000000000000000000000000000000000000000000815260040160405180910390fd5b600061141c61245c565b905060008151141561143d5760405180602001604052806000815250611468565b80611447846124ee565b6040516020016114589291906136cd565b6040516020818303038152906040525b915050919050565b600c5481565b82600c5481611483610a78565b61148d91906136f1565b11156114c5576040517ff577989700000000000000000000000000000000000000000000000000000000815260040160405180910390fd5b600d5481601260003373ffffffffffffffffffffffffffffffffffffffff1673ffffffffffffffffffffffffffffffffffffffff1681526020019081526020016000205461151391906136f1565b111561154a576040517eb50ce000000000000000000000000000000000000000000000000000000000815260040160405180910390fd5b600181118061159857506000601260003373ffffffffffffffffffffffffffffffffffffffff1673ffffffffffffffffffffffffffffffffffffffff16815260200190815260200160002054115b80156115b1575034600e54826115ae91906135d7565b14155b156115e8576040517fc09f196400000000000000000000000000000000000000000000000000000000815260040160405180910390fd5b601060149054906101000a900460ff16600481111561160a5761160961317f565b5b6002600481111561161e5761161d61317f565b5b1461168157601060149054906101000a900460ff1660048111156116455761164461317f565b5b6040517fba36bad600000000000000000000000000000000000000000000000000000000815260040161167891906130a8565b60405180910390fd5b6116ae601060009054906101000a900473ffffffffffffffffffffffffffffffffffffffff16848461253e565b6116e4576040517f976fa85200000000000000000000000000000000000000000000000000000000815260040160405180910390fd5b6116ed84612589565b50505050565b6116fb611e14565b80600f60006101000a81548173ffffffffffffffffffffffffffffffffffffffff021916908373ffffffffffffffffffffffffffffffffffffffff16021790555050565b6000600760008473ffffffffffffffffffffffffffffffffffffffff1673ffffffffffffffffffffffffffffffffffffffff16815260200190815260200160002060008373ffffffffffffffffffffffffffffffffffffffff1673ffffffffffffffffffffffffffffffffffffffff16815260200190815260200160002060009054906101000a900460ff16905092915050565b82600c54816117e0610a78565b6117ea91906136f1565b1115611822576040517ff577989700000000000000000000000000000000000000000000000000000000815260040160405180910390fd5b600d5481601260003373ffffffffffffffffffffffffffffffffffffffff1673ffffffffffffffffffffffffffffffffffffffff1681526020019081526020016000205461187091906136f1565b11156118a7576040517eb50ce000000000000000000000000000000000000000000000000000000000815260040160405180910390fd5b60018111806118f557506000601260003373ffffffffffffffffffffffffffffffffffffffff1673ffffffffffffffffffffffffffffffffffffffff16815260200190815260200160002054115b801561190e575034600e548261190b91906135d7565b14155b15611945576040517fc09f196400000000000000000000000000000000000000000000000000000000815260040160405180910390fd5b601060149054906101000a900460ff1660048111156119675761196661317f565b5b6001600481111561197b5761197a61317f565b5b146119de57601060149054906101000a900460ff1660048111156119a2576119a161317f565b5b6040517fba36bad60000000000000000000000000000000000000000000000000000000081526004016119d591906130a8565b60405180910390fd5b611a0b600f60009054906101000a900473ffffffffffffffffffffffffffffffffffffffff16848461253e565b611a41576040517f976fa85200000000000000000000000000000000000000000000000000000000815260040160405180910390fd5b611a4a84612589565b50505050565b80600c5481611a5d610a78565b611a6791906136f1565b1115611a9f576040517ff577989700000000000000000000000000000000000000000000000000000000815260040160405180910390fd5b600d5481601260003373ffffffffffffffffffffffffffffffffffffffff1673ffffffffffffffffffffffffffffffffffffffff16815260200190815260200160002054611aed91906136f1565b1115611b24576040517eb50ce000000000000000000000000000000000000000000000000000000000815260040160405180910390fd5b6001811180611b7257506000601260003373ffffffffffffffffffffffffffffffffffffffff1673ffffffffffffffffffffffffffffffffffffffff16815260200190815260200160002054115b8015611b8b575034600e5482611b8891906135d7565b14155b15611bc2576040517fc09f196400000000000000000000000000000000000000000000000000000000815260040160405180910390fd5b601060149054906101000a900460ff166004811115611be457611be361317f565b5b60036004811115611bf857611bf761317f565b5b14611c5b57601060149054906101000a900460ff166004811115611c1f57611c1e61317f565b5b6040517fba36bad6000000000000000000000000000000000000000000000000000000008152600401611c5291906130a8565b60405180910390fd5b611c6482612589565b5050565b611c70611e14565b600073ffffffffffffffffffffffffffffffffffffffff168173ffffffffffffffffffffffffffffffffffffffff161415611ce0576040517f08c379a0000000000000000000000000000000000000000000000000000000008152600401611cd7906137b9565b60405180910390fd5b611ce981612236565b50565b611cf4611e14565b80601060006101000a81548173ffffffffffffffffffffffffffffffffffffffff021916908373ffffffffffffffffffffffffffffffffffffffff16021790555050565b611d40611e14565b80611d49610a78565b611d5391906136f1565b600c5411611d8d576040517ff577989700000000000000000000000000000000000000000000000000000000815260040160405180910390fd5b611d973382612642565b50565b60007f2a55205a000000000000000000000000000000000000000000000000000000007bffffffffffffffffffffffffffffffffffffffffffffffffffffffff1916827bffffffffffffffffffffffffffffffffffffffffffffffffffffffff19161480611e0d5750611e0c82612660565b5b9050919050565b611e1c6126ca565b73ffffffffffffffffffffffffffffffffffffffff16611e3a611118565b73ffffffffffffffffffffffffffffffffffffffff1614611e90576040517f08c379a0000000000000000000000000000000000000000000000000000000008152600401611e8790613825565b60405180910390fd5b565b611e9a61222c565b6bffffffffffffffffffffffff16816bffffffffffffffffffffffff161115611ef8576040517f08c379a0000000000000000000000000000000000000000000000000000000008152600401611eef906138b7565b60405180910390fd5b600073ffffffffffffffffffffffffffffffffffffffff168273ffffffffffffffffffffffffffffffffffffffff161415611f68576040517f08c379a0000000000000000000000000000000000000000000000000000000008152600401611f5f90613923565b60405180910390fd5b60405180604001604052808373ffffffffffffffffffffffffffffffffffffffff168152602001826bffffffffffffffffffffffff16815250600860008201518160000160006101000a81548173ffffffffffffffffffffffffffffffffffffffff021916908373ffffffffffffffffffffffffffffffffffffffff16021790555060208201518160000160146101000a8154816bffffffffffffffffffffffff02191690836bffffffffffffffffffffffff1602179055509050505050565b60008161203361208f565b11158015612042575060005482105b8015612080575060007c0100000000000000000000000000000000000000000000000000000000600460008581526020019081526020016000205416145b9050919050565b600033905090565b600090565b600080829050806120a361208f565b1161212b5760005481101561212a5760006004600083815260200190815260200160002054905060007c010000000000000000000000000000000000000000000000000000000082161415612128575b600081141561211e5760046000836001900393508381526020019081526020016000205490506120f3565b809250505061215d565b505b5b6040517fdf2d9b4200000000000000000000000000000000000000000000000000000000815260040160405180910390fd5b919050565b60008060006006600085815260200190815260200160002090508092508254915050915091565b600073ffffffffffffffffffffffffffffffffffffffff8316925073ffffffffffffffffffffffffffffffffffffffff821691508382148383141790509392505050565b50505050565b60008060e883901c905060e86121ea8686846126d2565b62ffffff16901b9150509392505050565b600073ffffffffffffffffffffffffffffffffffffffff83169250814260a01b178317905092915050565b50505050565b6000612710905090565b6000600a60009054906101000a900473ffffffffffffffffffffffffffffffffffffffff16905081600a60006101000a81548173ffffffffffffffffffffffffffffffffffffffff021916908373ffffffffffffffffffffffffffffffffffffffff1602179055508173ffffffffffffffffffffffffffffffffffffffff168173ffffffffffffffffffffffffffffffffffffffff167f8be0079c531659141344cd1fd0a4f28419497f9722a3daafe3b4186f6b6457e060405160405180910390a35050565b60008373ffffffffffffffffffffffffffffffffffffffff1663150b7a02612322612087565b8786866040518563ffffffff1660e01b81526004016123449493929190613998565b602060405180830381600087803b15801561235e57600080fd5b505af192505050801561238f57506040513d601f19601f8201168201806040525081019061238c91906139f9565b60015b612409573d80600081146123bf576040519150601f19603f3d011682016040523d82523d6000602084013e6123c4565b606091505b50600081511415612401576040517fd1a57ed600000000000000000000000000000000000000000000000000000000815260040160405180910390fd5b805181602001fd5b63150b7a0260e01b7bffffffffffffffffffffffffffffffffffffffffffffffffffffffff1916817bffffffffffffffffffffffffffffffffffffffffffffffffffffffff191614915050949350505050565b60606011805461246b90613576565b80601f016020809104026020016040519081016040528092919081815260200182805461249790613576565b80156124e45780601f106124b9576101008083540402835291602001916124e4565b820191906000526020600020905b8154815290600101906020018083116124c757829003601f168201915b5050505050905090565b606060806040510190508060405280825b60011561252a57600183039250600a81066030018353600a81049050806125255761252a565b6124ff565b508181036020830392508083525050919050565b60008373ffffffffffffffffffffffffffffffffffffffff16612569612563856126db565b8461270b565b73ffffffffffffffffffffffffffffffffffffffff161490509392505050565b6002600b5414156125cf576040517f08c379a00000000000000000000000000000000000000000000000000000000081526004016125c690613a72565b60405180910390fd5b6002600b8190555080601260003373ffffffffffffffffffffffffffffffffffffffff1673ffffffffffffffffffffffffffffffffffffffff168152602001908152602001600020600082825461262691906136f1565b925050819055506126373382612642565b6001600b8190555050565b61265c828260405180602001604052806000815250612732565b5050565b60007f01ffc9a7000000000000000000000000000000000000000000000000000000007bffffffffffffffffffffffffffffffffffffffffffffffffffffffff1916827bffffffffffffffffffffffffffffffffffffffffffffffffffffffff1916149050919050565b600033905090565b60009392505050565b6000816040516020016126ee9190613aff565b604051602081830303815290604052805190602001209050919050565b600080600061271a85856127cf565b9150915061272781612852565b819250505092915050565b61273c8383612a27565b60008373ffffffffffffffffffffffffffffffffffffffff163b146127ca57600080549050600083820390505b61277c60008683806001019450866122fc565b6127b2576040517fd1a57ed600000000000000000000000000000000000000000000000000000000815260040160405180910390fd5b8181106127695781600054146127c757600080fd5b50505b505050565b6000806041835114156128115760008060006020860151925060408601519150606086015160001a905061280587828585612be4565b9450945050505061284b565b604083511415612842576000806020850151915060408501519050612837868383612cf1565b93509350505061284b565b60006002915091505b9250929050565b600060048111156128665761286561317f565b5b8160048111156128795761287861317f565b5b141561288457612a24565b600160048111156128985761289761317f565b5b8160048111156128ab576128aa61317f565b5b14156128ec576040517f08c379a00000000000000000000000000000000000000000000000000000000081526004016128e390613b71565b60405180910390fd5b60026004811115612900576128ff61317f565b5b8160048111156129135761291261317f565b5b1415612954576040517f08c379a000000000000000000000000000000000000000000000000000000000815260040161294b90613bdd565b60405180910390fd5b600360048111156129685761296761317f565b5b81600481111561297b5761297a61317f565b5b14156129bc576040517f08c379a00000000000000000000000000000000000000000000000000000000081526004016129b390613c6f565b60405180910390fd5b6004808111156129cf576129ce61317f565b5b8160048111156129e2576129e161317f565b5b1415612a23576040517f08c379a0000000000000000000000000000000000000000000000000000000008152600401612a1a90613d01565b60405180910390fd5b5b50565b6000805490506000821415612a68576040517fb562e8dd00000000000000000000000000000000000000000000000000000000815260040160405180910390fd5b612a7560008483856121cd565b600160406001901b178202600560008573ffffffffffffffffffffffffffffffffffffffff1673ffffffffffffffffffffffffffffffffffffffff16815260200190815260200160002060008282540192505081905550612aec83612add60008660006121d3565b612ae685612d50565b176121fb565b6004600083815260200190815260200160002081905550600080838301905073ffffffffffffffffffffffffffffffffffffffff85169150828260007fddf252ad1be2c89b69c2b068fc378daa952ba7f163c4a11628f55a4df523b3ef600080a4600183015b818114612b8d57808360007fddf252ad1be2c89b69c2b068fc378daa952ba7f163c4a11628f55a4df523b3ef600080a4600181019050612b52565b506000821415612bc9576040517f2e07630000000000000000000000000000000000000000000000000000000000815260040160405180910390fd5b806000819055505050612bdf6000848385612226565b505050565b6000807f7fffffffffffffffffffffffffffffff5d576e7357a4501ddfe92f46681b20a08360001c1115612c1f576000600391509150612ce8565b601b8560ff1614158015612c375750601c8560ff1614155b15612c49576000600491509150612ce8565b600060018787878760405160008152602001604052604051612c6e9493929190613d4c565b6020604051602081039080840390855afa158015612c90573d6000803e3d6000fd5b505050602060405103519050600073ffffffffffffffffffffffffffffffffffffffff168173ffffffffffffffffffffffffffffffffffffffff161415612cdf57600060019250925050612ce8565b80600092509250505b94509492505050565b60008060007f7fffffffffffffffffffffffffffffffffffffffffffffffffffffffffffffff60001b841690506000601b60ff8660001c901c612d3491906136f1565b9050612d4287828885612be4565b935093505050935093915050565b60006001821460e11b9050919050565b6000604051905090565b600080fd5b600080fd5b60007fffffffff0000000000000000000000000000000000000000000000000000000082169050919050565b612da981612d74565b8114612db457600080fd5b50565b600081359050612dc681612da0565b92915050565b600060208284031215612de257612de1612d6a565b5b6000612df084828501612db7565b91505092915050565b60008115159050919050565b612e0e81612df9565b82525050565b6000602082019050612e296000830184612e05565b92915050565b600073ffffffffffffffffffffffffffffffffffffffff82169050919050565b6000612e5a82612e2f565b9050919050565b612e6a81612e4f565b8114612e7557600080fd5b50565b600081359050612e8781612e61565b92915050565b60006bffffffffffffffffffffffff82169050919050565b612eae81612e8d565b8114612eb957600080fd5b50565b600081359050612ecb81612ea5565b92915050565b60008060408385031215612ee857612ee7612d6a565b5b6000612ef685828601612e78565b9250506020612f0785828601612ebc565b9150509250929050565b600081519050919050565b600082825260208201905092915050565b60005b83811015612f4b578082015181840152602081019050612f30565b83811115612f5a576000848401525b50505050565b6000601f19601f8301169050919050565b6000612f7c82612f11565b612f868185612f1c565b9350612f96818560208601612f2d565b612f9f81612f60565b840191505092915050565b60006020820190508181036000830152612fc48184612f71565b905092915050565b6000819050919050565b612fdf81612fcc565b8114612fea57600080fd5b50565b600081359050612ffc81612fd6565b92915050565b60006020828403121561301857613017612d6a565b5b600061302684828501612fed565b91505092915050565b61303881612e4f565b82525050565b6000602082019050613053600083018461302f565b92915050565b600080604083850312156130705761306f612d6a565b5b600061307e85828601612e78565b925050602061308f85828601612fed565b9150509250929050565b6130a281612fcc565b82525050565b60006020820190506130bd6000830184613099565b92915050565b6000806000606084860312156130dc576130db612d6a565b5b60006130ea86828701612e78565b93505060206130fb86828701612e78565b925050604061310c86828701612fed565b9150509250925092565b6000806040838503121561312d5761312c612d6a565b5b600061313b85828601612fed565b925050602061314c85828601612fed565b9150509250929050565b600060408201905061316b600083018561302f565b6131786020830184613099565b9392505050565b7f4e487b7100000000000000000000000000000000000000000000000000000000600052602160045260246000fd5b600581106131bf576131be61317f565b5b50565b60008190506131d0826131ae565b919050565b60006131e0826131c2565b9050919050565b6131f0816131d5565b82525050565b600060208201905061320b60008301846131e7565b92915050565b60006020828403121561322757613226612d6a565b5b600061323584828501612e78565b91505092915050565b61324781612df9565b811461325257600080fd5b50565b6000813590506132648161323e565b92915050565b6000806040838503121561328157613280612d6a565b5b600061328f85828601612e78565b92505060206132a085828601613255565b9150509250929050565b600080fd5b600080fd5b7f4e487b7100000000000000000000000000000000000000000000000000000000600052604160045260246000fd5b6132ec82612f60565b810181811067ffffffffffffffff8211171561330b5761330a6132b4565b5b80604052505050565b600061331e612d60565b905061332a82826132e3565b919050565b600067ffffffffffffffff82111561334a576133496132b4565b5b61335382612f60565b9050602081019050919050565b82818337600083830152505050565b600061338261337d8461332f565b613314565b90508281526020810184848401111561339e5761339d6132af565b5b6133a9848285613360565b509392505050565b600082601f8301126133c6576133c56132aa565b5b81356133d684826020860161336f565b91505092915050565b600080600080608085870312156133f9576133f8612d6a565b5b600061340787828801612e78565b945050602061341887828801612e78565b935050604061342987828801612fed565b925050606085013567ffffffffffffffff81111561344a57613449612d6f565b5b613456878288016133b1565b91505092959194509250565b6000819050919050565b61347581613462565b811461348057600080fd5b50565b6000813590506134928161346c565b92915050565b6000806000606084860312156134b1576134b0612d6a565b5b60006134bf86828701612fed565b93505060206134d086828701613483565b925050604084013567ffffffffffffffff8111156134f1576134f0612d6f565b5b6134fd868287016133b1565b9150509250925092565b6000806040838503121561351e5761351d612d6a565b5b600061352c85828601612e78565b925050602061353d85828601612e78565b9150509250929050565b7f4e487b7100000000000000000000000000000000000000000000000000000000600052602260045260246000fd5b6000600282049050600182168061358e57607f821691505b602082108114156135a2576135a1613547565b5b50919050565b7f4e487b7100000000000000000000000000000000000000000000000000000000600052601160045260246000fd5b60006135e282612fcc565b91506135ed83612fcc565b9250817fffffffffffffffffffffffffffffffffffffffffffffffffffffffffffffffff0483118215151615613626576136256135a8565b5b828202905092915050565b7f4e487b7100000000000000000000000000000000000000000000000000000000600052601260045260246000fd5b600061366b82612fcc565b915061367683612fcc565b92508261368657613685613631565b5b828204905092915050565b600081905092915050565b60006136a782612f11565b6136b18185613691565b93506136c1818560208601612f2d565b80840191505092915050565b60006136d9828561369c565b91506136e5828461369c565b91508190509392505050565b60006136fc82612fcc565b915061370783612fcc565b9250827fffffffffffffffffffffffffffffffffffffffffffffffffffffffffffffffff0382111561373c5761373b6135a8565b5b828201905092915050565b7f4f776e61626c653a206e6577206f776e657220697320746865207a65726f206160008201527f6464726573730000000000000000000000000000000000000000000000000000602082015250565b60006137a3602683612f1c565b91506137ae82613747565b604082019050919050565b600060208201905081810360008301526137d281613796565b9050919050565b7f4f776e61626c653a2063616c6c6572206973206e6f7420746865206f776e6572600082015250565b600061380f602083612f1c565b915061381a826137d9565b602082019050919050565b6000602082019050818103600083015261383e81613802565b9050919050565b7f455243323938313a20726f79616c7479206665652077696c6c2065786365656460008201527f2073616c65507269636500000000000000000000000000000000000000000000602082015250565b60006138a1602a83612f1c565b91506138ac82613845565b604082019050919050565b600060208201905081810360008301526138d081613894565b9050919050565b7f455243323938313a20696e76616c696420726563656976657200000000000000600082015250565b600061390d601983612f1c565b9150613918826138d7565b602082019050919050565b6000602082019050818103600083015261393c81613900565b9050919050565b600081519050919050565b600082825260208201905092915050565b600061396a82613943565b613974818561394e565b9350613984818560208601612f2d565b61398d81612f60565b840191505092915050565b60006080820190506139ad600083018761302f565b6139ba602083018661302f565b6139c76040830185613099565b81810360608301526139d9818461395f565b905095945050505050565b6000815190506139f381612da0565b92915050565b600060208284031215613a0f57613a0e612d6a565b5b6000613a1d848285016139e4565b91505092915050565b7f5265656e7472616e637947756172643a207265656e7472616e742063616c6c00600082015250565b6000613a5c601f83612f1c565b9150613a6782613a26565b602082019050919050565b60006020820190508181036000830152613a8b81613a4f565b9050919050565b7f19457468657265756d205369676e6564204d6573736167653a0a333200000000600082015250565b6000613ac8601c83613691565b9150613ad382613a92565b601c82019050919050565b6000819050919050565b613af9613af482613462565b613ade565b82525050565b6000613b0a82613abb565b9150613b168284613ae8565b60208201915081905092915050565b7f45434453413a20696e76616c6964207369676e61747572650000000000000000600082015250565b6000613b5b601883612f1c565b9150613b6682613b25565b602082019050919050565b60006020820190508181036000830152613b8a81613b4e565b9050919050565b7f45434453413a20696e76616c6964207369676e6174757265206c656e67746800600082015250565b6000613bc7601f83612f1c565b9150613bd282613b91565b602082019050919050565b60006020820190508181036000830152613bf681613bba565b9050919050565b7f45434453413a20696e76616c6964207369676e6174757265202773272076616c60008201527f7565000000000000000000000000000000000000000000000000000000000000602082015250565b6000613c59602283612f1c565b9150613c6482613bfd565b604082019050919050565b60006020820190508181036000830152613c8881613c4c565b9050919050565b7f45434453413a20696e76616c6964207369676e6174757265202776272076616c60008201527f7565000000000000000000000000000000000000000000000000000000000000602082015250565b6000613ceb602283612f1c565b9150613cf682613c8f565b604082019050919050565b60006020820190508181036000830152613d1a81613cde565b9050919050565b613d2a81613462565b82525050565b600060ff82169050919050565b613d4681613d30565b82525050565b6000608082019050613d616000830187613d21565b613d6e6020830186613d3d565b613d7b6040830185613d21565b613d886060830184613d21565b9594505050505056fea2646970667358221220944860681043f59922db16d8bb1643a87b7c4126f901dd0452a27872b321096564736f6c63430008090033",
  "devdoc": {
    "kind": "dev",
    "methods": {
      "approve(address,uint256)": {
        "details": "Gives permission to `to` to transfer `tokenId` token to another account. The approval is cleared when the token is transferred. Only a single account can be approved at a time, so approving the zero address clears previous approvals. Requirements: - The caller must own the token or be an approved operator. - `tokenId` must exist. Emits an {Approval} event."
      },
      "balanceOf(address)": {
        "details": "Returns the number of tokens in `owner`'s account."
      },
      "getApproved(uint256)": {
        "details": "Returns the account approved for `tokenId` token. Requirements: - `tokenId` must exist."
      },
      "isApprovedForAll(address,address)": {
        "details": "Returns if the `operator` is allowed to manage all of the assets of `owner`. See {setApprovalForAll}."
      },
      "name()": {
        "details": "Returns the token collection name."
      },
      "owner()": {
        "details": "Returns the address of the current owner."
      },
      "ownerOf(uint256)": {
        "details": "Returns the owner of the `tokenId` token. Requirements: - `tokenId` must exist."
      },
      "renounceOwnership()": {
        "details": "Leaves the contract without owner. It will not be possible to call `onlyOwner` functions anymore. Can only be called by the current owner. NOTE: Renouncing ownership will leave the contract without an owner, thereby removing any functionality that is only available to the owner."
      },
      "royaltyInfo(uint256,uint256)": {
        "details": "Returns how much royalty is owed and to whom, based on a sale price that may be denominated in any unit of exchange. The royalty amount is denominated and should be paid in that same unit of exchange."
      },
      "safeTransferFrom(address,address,uint256)": {
        "details": "Equivalent to `safeTransferFrom(from, to, tokenId, '')`."
      },
      "safeTransferFrom(address,address,uint256,bytes)": {
        "details": "Safely transfers `tokenId` token from `from` to `to`. Requirements: - `from` cannot be the zero address. - `to` cannot be the zero address. - `tokenId` token must exist and be owned by `from`. - If the caller is not `from`, it must be approved to move this token by either {approve} or {setApprovalForAll}. - If `to` refers to a smart contract, it must implement {IERC721Receiver-onERC721Received}, which is called upon a safe transfer. Emits a {Transfer} event."
      },
      "setApprovalForAll(address,bool)": {
        "details": "Approve or remove `operator` as an operator for the caller. Operators can call {transferFrom} or {safeTransferFrom} for any token owned by the caller. Requirements: - The `operator` cannot be the caller. Emits an {ApprovalForAll} event."
      },
      "symbol()": {
        "details": "Returns the token collection symbol."
      },
      "tokenURI(uint256)": {
        "details": "Returns the Uniform Resource Identifier (URI) for `tokenId` token."
      },
      "totalSupply()": {
        "details": "Returns the total number of tokens in existence. Burned tokens will reduce the count. To get the total number of tokens minted, please see {_totalMinted}."
      },
      "transferFrom(address,address,uint256)": {
        "details": "Transfers `tokenId` from `from` to `to`. Requirements: - `from` cannot be the zero address. - `to` cannot be the zero address. - `tokenId` token must be owned by `from`. - If the caller is not `from`, it must be approved to move this token by either {approve} or {setApprovalForAll}. Emits a {Transfer} event."
      },
      "transferOwnership(address)": {
        "details": "Transfers ownership of the contract to a new account (`newOwner`). Can only be called by the current owner."
      }
    },
    "version": 1
  },
  "userdoc": {
    "errors": {
      "ApprovalCallerNotOwnerNorApproved()": [
        {
          "notice": "The caller must own the token or be an approved operator."
        }
      ],
      "ApprovalQueryForNonexistentToken()": [
        {
          "notice": "The token does not exist."
        }
      ],
      "ApproveToCaller()": [
        {
          "notice": "The caller cannot approve to their own address."
        }
      ],
      "BalanceQueryForZeroAddress()": [
        {
          "notice": "Cannot query the balance for the zero address."
        }
      ],
      "MintERC2309QuantityExceedsLimit()": [
        {
          "notice": "The `quantity` minted with ERC2309 exceeds the safety limit."
        }
      ],
      "MintToZeroAddress()": [
        {
          "notice": "Cannot mint to the zero address."
        }
      ],
      "MintZeroQuantity()": [
        {
          "notice": "The quantity of tokens minted must be more than zero."
        }
      ],
      "OwnerQueryForNonexistentToken()": [
        {
          "notice": "The token does not exist."
        }
      ],
      "OwnershipNotInitializedForExtraData()": [
        {
          "notice": "The `extraData` cannot be set on an unintialized ownership slot."
        }
      ],
      "TransferCallerNotOwnerNorApproved()": [
        {
          "notice": "The caller must own the token or be an approved operator."
        }
      ],
      "TransferFromIncorrectOwner()": [
        {
          "notice": "The token must be owned by `from`."
        }
      ],
      "TransferToNonERC721ReceiverImplementer()": [
        {
          "notice": "Cannot safely transfer to a contract that does not implement the ERC721Receiver interface."
        }
      ],
      "TransferToZeroAddress()": [
        {
          "notice": "Cannot transfer to the zero address."
        }
      ],
      "URIQueryForNonexistentToken()": [
        {
          "notice": "The token does not exist."
        }
      ]
    },
    "kind": "user",
    "methods": {},
    "version": 1
  },
  "storageLayout": {
    "storage": [
      {
        "astId": 1980,
        "contract": "contracts/Movebirds.sol:Movebirds",
        "label": "_currentIndex",
        "offset": 0,
        "slot": "0",
        "type": "t_uint256"
      },
      {
        "astId": 1982,
        "contract": "contracts/Movebirds.sol:Movebirds",
        "label": "_burnCounter",
        "offset": 0,
        "slot": "1",
        "type": "t_uint256"
      },
      {
        "astId": 1984,
        "contract": "contracts/Movebirds.sol:Movebirds",
        "label": "_name",
        "offset": 0,
        "slot": "2",
        "type": "t_string_storage"
      },
      {
        "astId": 1986,
        "contract": "contracts/Movebirds.sol:Movebirds",
        "label": "_symbol",
        "offset": 0,
        "slot": "3",
        "type": "t_string_storage"
      },
      {
        "astId": 1990,
        "contract": "contracts/Movebirds.sol:Movebirds",
        "label": "_packedOwnerships",
        "offset": 0,
        "slot": "4",
        "type": "t_mapping(t_uint256,t_uint256)"
      },
      {
        "astId": 1994,
        "contract": "contracts/Movebirds.sol:Movebirds",
        "label": "_packedAddressData",
        "offset": 0,
        "slot": "5",
        "type": "t_mapping(t_address,t_uint256)"
      },
      {
        "astId": 1999,
        "contract": "contracts/Movebirds.sol:Movebirds",
        "label": "_tokenApprovals",
        "offset": 0,
        "slot": "6",
        "type": "t_mapping(t_uint256,t_struct(TokenApprovalRef)1912_storage)"
      },
      {
        "astId": 2005,
        "contract": "contracts/Movebirds.sol:Movebirds",
        "label": "_operatorApprovals",
        "offset": 0,
        "slot": "7",
        "type": "t_mapping(t_address,t_mapping(t_address,t_bool))"
      },
      {
        "astId": 202,
        "contract": "contracts/Movebirds.sol:Movebirds",
        "label": "_defaultRoyaltyInfo",
        "offset": 0,
        "slot": "8",
        "type": "t_struct(RoyaltyInfo)199_storage"
      },
      {
        "astId": 207,
        "contract": "contracts/Movebirds.sol:Movebirds",
        "label": "_tokenRoyaltyInfo",
        "offset": 0,
        "slot": "9",
        "type": "t_mapping(t_uint256,t_struct(RoyaltyInfo)199_storage)"
      },
      {
        "astId": 7,
        "contract": "contracts/Movebirds.sol:Movebirds",
        "label": "_owner",
        "offset": 0,
        "slot": "10",
        "type": "t_address"
      },
      {
        "astId": 156,
        "contract": "contracts/Movebirds.sol:Movebirds",
        "label": "_status",
        "offset": 0,
        "slot": "11",
        "type": "t_uint256"
      },
      {
        "astId": 1500,
        "contract": "contracts/Movebirds.sol:Movebirds",
        "label": "maxSupply",
        "offset": 0,
        "slot": "12",
        "type": "t_uint256"
      },
      {
        "astId": 1503,
        "contract": "contracts/Movebirds.sol:Movebirds",
        "label": "maxPerAddress",
        "offset": 0,
        "slot": "13",
        "type": "t_uint256"
      },
      {
        "astId": 1506,
        "contract": "contracts/Movebirds.sol:Movebirds",
        "label": "tokenPrice",
        "offset": 0,
        "slot": "14",
        "type": "t_uint256"
      },
      {
        "astId": 1508,
        "contract": "contracts/Movebirds.sol:Movebirds",
        "label": "signerAddressAllowlist",
        "offset": 0,
        "slot": "15",
        "type": "t_address"
      },
      {
        "astId": 1510,
        "contract": "contracts/Movebirds.sol:Movebirds",
        "label": "signerAddressWaitlist",
        "offset": 0,
        "slot": "16",
        "type": "t_address"
      },
      {
        "astId": 1515,
        "contract": "contracts/Movebirds.sol:Movebirds",
        "label": "saleStage",
        "offset": 20,
        "slot": "16",
        "type": "t_enum(SaleStage)1497"
      },
      {
        "astId": 1517,
        "contract": "contracts/Movebirds.sol:Movebirds",
        "label": "baseTokenUri",
        "offset": 0,
        "slot": "17",
        "type": "t_string_storage"
      },
      {
        "astId": 1521,
        "contract": "contracts/Movebirds.sol:Movebirds",
        "label": "tokensClaimed",
        "offset": 0,
        "slot": "18",
        "type": "t_mapping(t_address,t_uint256)"
      }
    ],
    "types": {
      "t_address": {
        "encoding": "inplace",
        "label": "address",
        "numberOfBytes": "20"
      },
      "t_bool": {
        "encoding": "inplace",
        "label": "bool",
        "numberOfBytes": "1"
      },
      "t_enum(SaleStage)1497": {
        "encoding": "inplace",
        "label": "enum Movebirds.SaleStage",
        "numberOfBytes": "1"
      },
      "t_mapping(t_address,t_bool)": {
        "encoding": "mapping",
        "key": "t_address",
        "label": "mapping(address => bool)",
        "numberOfBytes": "32",
        "value": "t_bool"
      },
      "t_mapping(t_address,t_mapping(t_address,t_bool))": {
        "encoding": "mapping",
        "key": "t_address",
        "label": "mapping(address => mapping(address => bool))",
        "numberOfBytes": "32",
        "value": "t_mapping(t_address,t_bool)"
      },
      "t_mapping(t_address,t_uint256)": {
        "encoding": "mapping",
        "key": "t_address",
        "label": "mapping(address => uint256)",
        "numberOfBytes": "32",
        "value": "t_uint256"
      },
      "t_mapping(t_uint256,t_struct(RoyaltyInfo)199_storage)": {
        "encoding": "mapping",
        "key": "t_uint256",
        "label": "mapping(uint256 => struct ERC2981.RoyaltyInfo)",
        "numberOfBytes": "32",
        "value": "t_struct(RoyaltyInfo)199_storage"
      },
      "t_mapping(t_uint256,t_struct(TokenApprovalRef)1912_storage)": {
        "encoding": "mapping",
        "key": "t_uint256",
        "label": "mapping(uint256 => struct ERC721A.TokenApprovalRef)",
        "numberOfBytes": "32",
        "value": "t_struct(TokenApprovalRef)1912_storage"
      },
      "t_mapping(t_uint256,t_uint256)": {
        "encoding": "mapping",
        "key": "t_uint256",
        "label": "mapping(uint256 => uint256)",
        "numberOfBytes": "32",
        "value": "t_uint256"
      },
      "t_string_storage": {
        "encoding": "bytes",
        "label": "string",
        "numberOfBytes": "32"
      },
      "t_struct(RoyaltyInfo)199_storage": {
        "encoding": "inplace",
        "label": "struct ERC2981.RoyaltyInfo",
        "members": [
          {
            "astId": 196,
            "contract": "contracts/Movebirds.sol:Movebirds",
            "label": "receiver",
            "offset": 0,
            "slot": "0",
            "type": "t_address"
          },
          {
            "astId": 198,
            "contract": "contracts/Movebirds.sol:Movebirds",
            "label": "royaltyFraction",
            "offset": 20,
            "slot": "0",
            "type": "t_uint96"
          }
        ],
        "numberOfBytes": "32"
      },
      "t_struct(TokenApprovalRef)1912_storage": {
        "encoding": "inplace",
        "label": "struct ERC721A.TokenApprovalRef",
        "members": [
          {
            "astId": 1911,
            "contract": "contracts/Movebirds.sol:Movebirds",
            "label": "value",
            "offset": 0,
            "slot": "0",
            "type": "t_address"
          }
        ],
        "numberOfBytes": "32"
      },
      "t_uint256": {
        "encoding": "inplace",
        "label": "uint256",
        "numberOfBytes": "32"
      },
      "t_uint96": {
        "encoding": "inplace",
        "label": "uint96",
        "numberOfBytes": "12"
      }
    }
  }
}