{
  "address": "0xF9Ebf529555DA48C4f3D943fa6fabCfa27dBE118",
  "abi": [
    {
      "inputs": [
        {
          "internalType": "string",
          "name": "defaultBaseUri",
          "type": "string"
        },
        {
          "internalType": "address",
          "name": "royaltyReciver",
          "type": "address"
        }
      ],
      "stateMutability": "nonpayable",
      "type": "constructor"
    },
    {
      "inputs": [],
      "name": "ApprovalCallerNotOwnerNorApproved",
      "type": "error"
    },
    {
      "inputs": [],
      "name": "ApprovalQueryForNonexistentToken",
      "type": "error"
    },
    {
      "inputs": [],
      "name": "ApproveToCaller",
      "type": "error"
    },
    {
      "inputs": [],
      "name": "BalanceQueryForZeroAddress",
      "type": "error"
    },
    {
      "inputs": [],
      "name": "MintERC2309QuantityExceedsLimit",
      "type": "error"
    },
    {
      "inputs": [],
      "name": "MintToZeroAddress",
      "type": "error"
    },
    {
      "inputs": [],
      "name": "MintZeroQuantity",
      "type": "error"
    },
    {
      "inputs": [],
      "name": "Movebirds__InvalidSigner",
      "type": "error"
    },
    {
      "inputs": [],
      "name": "Movebirds__OutOfMaxPerWallet",
      "type": "error"
    },
    {
      "inputs": [],
      "name": "Movebirds__SoldOut",
      "type": "error"
    },
    {
      "inputs": [
        {
          "internalType": "uint256",
          "name": "stage",
          "type": "uint256"
        }
      ],
      "name": "Movebirds__StageNotStartedYet",
      "type": "error"
    },
    {
      "inputs": [],
      "name": "OwnerQueryForNonexistentToken",
      "type": "error"
    },
    {
      "inputs": [],
      "name": "OwnershipNotInitializedForExtraData",
      "type": "error"
    },
    {
      "inputs": [],
      "name": "TransferCallerNotOwnerNorApproved",
      "type": "error"
    },
    {
      "inputs": [],
      "name": "TransferFromIncorrectOwner",
      "type": "error"
    },
    {
      "inputs": [],
      "name": "TransferToNonERC721ReceiverImplementer",
      "type": "error"
    },
    {
      "inputs": [],
      "name": "TransferToZeroAddress",
      "type": "error"
    },
    {
      "inputs": [],
      "name": "URIQueryForNonexistentToken",
      "type": "error"
    },
    {
      "anonymous": false,
      "inputs": [
        {
          "indexed": true,
          "internalType": "address",
          "name": "owner",
          "type": "address"
        },
        {
          "indexed": true,
          "internalType": "address",
          "name": "approved",
          "type": "address"
        },
        {
          "indexed": true,
          "internalType": "uint256",
          "name": "tokenId",
          "type": "uint256"
        }
      ],
      "name": "Approval",
      "type": "event"
    },
    {
      "anonymous": false,
      "inputs": [
        {
          "indexed": true,
          "internalType": "address",
          "name": "owner",
          "type": "address"
        },
        {
          "indexed": true,
          "internalType": "address",
          "name": "operator",
          "type": "address"
        },
        {
          "indexed": false,
          "internalType": "bool",
          "name": "approved",
          "type": "bool"
        }
      ],
      "name": "ApprovalForAll",
      "type": "event"
    },
    {
      "anonymous": false,
      "inputs": [
        {
          "indexed": false,
          "internalType": "uint8",
          "name": "salesSatgeCode",
          "type": "uint8"
        }
      ],
      "name": "ChangeSalesStage",
      "type": "event"
    },
    {
      "anonymous": false,
      "inputs": [
        {
          "indexed": true,
          "internalType": "uint256",
          "name": "fromTokenId",
          "type": "uint256"
        },
        {
          "indexed": false,
          "internalType": "uint256",
          "name": "toTokenId",
          "type": "uint256"
        },
        {
          "indexed": true,
          "internalType": "address",
          "name": "from",
          "type": "address"
        },
        {
          "indexed": true,
          "internalType": "address",
          "name": "to",
          "type": "address"
        }
      ],
      "name": "ConsecutiveTransfer",
      "type": "event"
    },
    {
      "anonymous": false,
      "inputs": [
        {
          "indexed": true,
          "internalType": "address",
          "name": "previousOwner",
          "type": "address"
        },
        {
          "indexed": true,
          "internalType": "address",
          "name": "newOwner",
          "type": "address"
        }
      ],
      "name": "OwnershipTransferred",
      "type": "event"
    },
    {
      "anonymous": false,
      "inputs": [
        {
          "indexed": true,
          "internalType": "address",
          "name": "from",
          "type": "address"
        },
        {
          "indexed": true,
          "internalType": "address",
          "name": "to",
          "type": "address"
        },
        {
          "indexed": true,
          "internalType": "uint256",
          "name": "tokenId",
          "type": "uint256"
        }
      ],
      "name": "Transfer",
      "type": "event"
    },
    {
      "inputs": [
        {
          "internalType": "address",
          "name": "to",
          "type": "address"
        },
        {
          "internalType": "uint256",
          "name": "tokenId",
          "type": "uint256"
        }
      ],
      "name": "approve",
      "outputs": [],
      "stateMutability": "nonpayable",
      "type": "function"
    },
    {
      "inputs": [
        {
          "internalType": "address",
          "name": "owner",
          "type": "address"
        }
      ],
      "name": "balanceOf",
      "outputs": [
        {
          "internalType": "uint256",
          "name": "",
          "type": "uint256"
        }
      ],
      "stateMutability": "view",
      "type": "function"
    },
    {
      "inputs": [
        {
          "internalType": "uint256",
          "name": "tokenId",
          "type": "uint256"
        }
      ],
      "name": "getApproved",
      "outputs": [
        {
          "internalType": "address",
          "name": "",
          "type": "address"
        }
      ],
      "stateMutability": "view",
      "type": "function"
    },
    {
      "inputs": [
        {
          "internalType": "address",
          "name": "claimer",
          "type": "address"
        }
      ],
      "name": "getTokensCaimed",
      "outputs": [
        {
          "internalType": "uint256",
          "name": "",
          "type": "uint256"
        }
      ],
      "stateMutability": "view",
      "type": "function"
    },
    {
      "inputs": [
        {
          "internalType": "address",
          "name": "owner",
          "type": "address"
        },
        {
          "internalType": "address",
          "name": "operator",
          "type": "address"
        }
      ],
      "name": "isApprovedForAll",
      "outputs": [
        {
          "internalType": "bool",
          "name": "",
          "type": "bool"
        }
      ],
      "stateMutability": "view",
      "type": "function"
    },
    {
      "inputs": [],
      "name": "maxPerAddress",
      "outputs": [
        {
          "internalType": "uint256",
          "name": "",
          "type": "uint256"
        }
      ],
      "stateMutability": "view",
      "type": "function"
    },
    {
      "inputs": [],
      "name": "maxSupply",
      "outputs": [
        {
          "internalType": "uint256",
          "name": "",
          "type": "uint256"
        }
      ],
      "stateMutability": "view",
      "type": "function"
    },
    {
      "inputs": [
        {
          "internalType": "uint256",
          "name": "quantity",
          "type": "uint256"
        },
        {
          "internalType": "bytes32",
          "name": "_hash",
          "type": "bytes32"
        },
        {
          "internalType": "bytes",
          "name": "signature",
          "type": "bytes"
        }
      ],
      "name": "mintAllowlist",
      "outputs": [],
      "stateMutability": "nonpayable",
      "type": "function"
    },
    {
      "inputs": [
        {
          "internalType": "uint256",
          "name": "quantity",
          "type": "uint256"
        }
      ],
      "name": "mintDev",
      "outputs": [],
      "stateMutability": "nonpayable",
      "type": "function"
    },
    {
      "inputs": [
        {
          "internalType": "uint256",
          "name": "quantity",
          "type": "uint256"
        }
      ],
      "name": "mintPublic",
      "outputs": [],
      "stateMutability": "nonpayable",
      "type": "function"
    },
    {
      "inputs": [
        {
          "internalType": "uint256",
          "name": "quantity",
          "type": "uint256"
        },
        {
          "internalType": "bytes32",
          "name": "_hash",
          "type": "bytes32"
        },
        {
          "internalType": "bytes",
          "name": "signature",
          "type": "bytes"
        }
      ],
      "name": "mintWaitlist",
      "outputs": [],
      "stateMutability": "nonpayable",
      "type": "function"
    },
    {
      "inputs": [],
      "name": "name",
      "outputs": [
        {
          "internalType": "string",
          "name": "",
          "type": "string"
        }
      ],
      "stateMutability": "view",
      "type": "function"
    },
    {
      "inputs": [],
      "name": "owner",
      "outputs": [
        {
          "internalType": "address",
          "name": "",
          "type": "address"
        }
      ],
      "stateMutability": "view",
      "type": "function"
    },
    {
      "inputs": [
        {
          "internalType": "uint256",
          "name": "tokenId",
          "type": "uint256"
        }
      ],
      "name": "ownerOf",
      "outputs": [
        {
          "internalType": "address",
          "name": "",
          "type": "address"
        }
      ],
      "stateMutability": "view",
      "type": "function"
    },
    {
      "inputs": [],
      "name": "renounceOwnership",
      "outputs": [],
      "stateMutability": "nonpayable",
      "type": "function"
    },
    {
      "inputs": [
        {
          "internalType": "uint256",
          "name": "_tokenId",
          "type": "uint256"
        },
        {
          "internalType": "uint256",
          "name": "_salePrice",
          "type": "uint256"
        }
      ],
      "name": "royaltyInfo",
      "outputs": [
        {
          "internalType": "address",
          "name": "",
          "type": "address"
        },
        {
          "internalType": "uint256",
          "name": "",
          "type": "uint256"
        }
      ],
      "stateMutability": "view",
      "type": "function"
    },
    {
      "inputs": [],
      "name": "s_saleStage",
      "outputs": [
        {
          "internalType": "enum Movebirds.SaleStage",
          "name": "",
          "type": "uint8"
        }
      ],
      "stateMutability": "view",
      "type": "function"
    },
    {
      "inputs": [
        {
          "internalType": "address",
          "name": "from",
          "type": "address"
        },
        {
          "internalType": "address",
          "name": "to",
          "type": "address"
        },
        {
          "internalType": "uint256",
          "name": "tokenId",
          "type": "uint256"
        }
      ],
      "name": "safeTransferFrom",
      "outputs": [],
      "stateMutability": "nonpayable",
      "type": "function"
    },
    {
      "inputs": [
        {
          "internalType": "address",
          "name": "from",
          "type": "address"
        },
        {
          "internalType": "address",
          "name": "to",
          "type": "address"
        },
        {
          "internalType": "uint256",
          "name": "tokenId",
          "type": "uint256"
        },
        {
          "internalType": "bytes",
          "name": "_data",
          "type": "bytes"
        }
      ],
      "name": "safeTransferFrom",
      "outputs": [],
      "stateMutability": "nonpayable",
      "type": "function"
    },
    {
      "inputs": [
        {
          "internalType": "address",
          "name": "signer",
          "type": "address"
        }
      ],
      "name": "setAllowlistSigner",
      "outputs": [],
      "stateMutability": "nonpayable",
      "type": "function"
    },
    {
      "inputs": [
        {
          "internalType": "address",
          "name": "operator",
          "type": "address"
        },
        {
          "internalType": "bool",
          "name": "approved",
          "type": "bool"
        }
      ],
      "name": "setApprovalForAll",
      "outputs": [],
      "stateMutability": "nonpayable",
      "type": "function"
    },
    {
      "inputs": [
        {
          "internalType": "address",
          "name": "receiver",
          "type": "address"
        },
        {
          "internalType": "uint96",
          "name": "feeNumerator",
          "type": "uint96"
        }
      ],
      "name": "setDefaultRoyalty",
      "outputs": [],
      "stateMutability": "nonpayable",
      "type": "function"
    },
    {
      "inputs": [
        {
          "internalType": "uint256",
          "name": "newMax",
          "type": "uint256"
        }
      ],
      "name": "setMaxPerAddress",
      "outputs": [],
      "stateMutability": "nonpayable",
      "type": "function"
    },
    {
      "inputs": [
        {
          "internalType": "uint256",
          "name": "newStage",
          "type": "uint256"
        }
      ],
      "name": "setSaleStage",
      "outputs": [],
      "stateMutability": "nonpayable",
      "type": "function"
    },
    {
      "inputs": [
        {
          "internalType": "address",
          "name": "signer",
          "type": "address"
        }
      ],
      "name": "setWaitlistSigner",
      "outputs": [],
      "stateMutability": "nonpayable",
      "type": "function"
    },
    {
      "inputs": [
        {
          "internalType": "bytes4",
          "name": "interfaceId",
          "type": "bytes4"
        }
      ],
      "name": "supportsInterface",
      "outputs": [
        {
          "internalType": "bool",
          "name": "",
          "type": "bool"
        }
      ],
      "stateMutability": "view",
      "type": "function"
    },
    {
      "inputs": [],
      "name": "symbol",
      "outputs": [
        {
          "internalType": "string",
          "name": "",
          "type": "string"
        }
      ],
      "stateMutability": "view",
      "type": "function"
    },
    {
      "inputs": [
        {
          "internalType": "uint256",
          "name": "tokenId",
          "type": "uint256"
        }
      ],
      "name": "tokenURI",
      "outputs": [
        {
          "internalType": "string",
          "name": "",
          "type": "string"
        }
      ],
      "stateMutability": "view",
      "type": "function"
    },
    {
      "inputs": [],
      "name": "totalSupply",
      "outputs": [
        {
          "internalType": "uint256",
          "name": "",
          "type": "uint256"
        }
      ],
      "stateMutability": "view",
      "type": "function"
    },
    {
      "inputs": [
        {
          "internalType": "address",
          "name": "from",
          "type": "address"
        },
        {
          "internalType": "address",
          "name": "to",
          "type": "address"
        },
        {
          "internalType": "uint256",
          "name": "tokenId",
          "type": "uint256"
        }
      ],
      "name": "transferFrom",
      "outputs": [],
      "stateMutability": "nonpayable",
      "type": "function"
    },
    {
      "inputs": [
        {
          "internalType": "address",
          "name": "newOwner",
          "type": "address"
        }
      ],
      "name": "transferOwnership",
      "outputs": [],
      "stateMutability": "nonpayable",
      "type": "function"
    }
  ],
  "transactionHash": "0xb4c50d16a63560b41113ba4a9c67b07f32c5d361ac87a0cb4a1e2ae9ab6611a0",
  "args": [
    "ipfs://ghhgk",
    "0x16A765B12F9f364aed12F836dA9ae42DB10B2d88"
  ],
  "numDeployments": 2,
  "solcInputHash": "f0d7669858280dc2b05fe79396322e98",
  "bytecode": "0x6080604052600a600c556001600d556000600f60146101000a81548160ff02191690836004811115620000375762000036620004b3565b5b02179055503480156200004957600080fd5b50604051620042763803806200427683398181016040528101906200006f9190620006e4565b6040518060400160405280600981526020017f4d6f7665626972647300000000000000000000000000000000000000000000008152506040518060400160405280600281526020017f4d420000000000000000000000000000000000000000000000000000000000008152508160029080519060200190620000f392919062000403565b5080600390805190602001906200010c92919062000403565b506200011d6200018260201b60201c565b600081905550505062000145620001396200018760201b60201c565b6200018f60201b60201c565b6001600b8190555062000161816101f46200025560201b60201c565b81601090805190602001906200017992919062000403565b505050620008ca565b600090565b600033905090565b6000600a60009054906101000a900473ffffffffffffffffffffffffffffffffffffffff16905081600a60006101000a81548173ffffffffffffffffffffffffffffffffffffffff021916908373ffffffffffffffffffffffffffffffffffffffff1602179055508173ffffffffffffffffffffffffffffffffffffffff168173ffffffffffffffffffffffffffffffffffffffff167f8be0079c531659141344cd1fd0a4f28419497f9722a3daafe3b4186f6b6457e060405160405180910390a35050565b62000265620003f960201b60201c565b6bffffffffffffffffffffffff16816bffffffffffffffffffffffff161115620002c6576040517f08c379a0000000000000000000000000000000000000000000000000000000008152600401620002bd90620007d1565b60405180910390fd5b600073ffffffffffffffffffffffffffffffffffffffff168273ffffffffffffffffffffffffffffffffffffffff16141562000339576040517f08c379a0000000000000000000000000000000000000000000000000000000008152600401620003309062000843565b60405180910390fd5b60405180604001604052808373ffffffffffffffffffffffffffffffffffffffff168152602001826bffffffffffffffffffffffff16815250600860008201518160000160006101000a81548173ffffffffffffffffffffffffffffffffffffffff021916908373ffffffffffffffffffffffffffffffffffffffff16021790555060208201518160000160146101000a8154816bffffffffffffffffffffffff02191690836bffffffffffffffffffffffff1602179055509050505050565b6000612710905090565b828054620004119062000894565b90600052602060002090601f01602090048101928262000435576000855562000481565b82601f106200045057805160ff191683800117855562000481565b8280016001018555821562000481579182015b828111156200048057825182559160200191906001019062000463565b5b50905062000490919062000494565b5090565b5b80821115620004af57600081600090555060010162000495565b5090565b7f4e487b7100000000000000000000000000000000000000000000000000000000600052602160045260246000fd5b6000604051905090565b600080fd5b600080fd5b600080fd5b600080fd5b6000601f19601f8301169050919050565b7f4e487b7100000000000000000000000000000000000000000000000000000000600052604160045260246000fd5b6200054b8262000500565b810181811067ffffffffffffffff821117156200056d576200056c62000511565b5b80604052505050565b600062000582620004e2565b905062000590828262000540565b919050565b600067ffffffffffffffff821115620005b357620005b262000511565b5b620005be8262000500565b9050602081019050919050565b60005b83811015620005eb578082015181840152602081019050620005ce565b83811115620005fb576000848401525b50505050565b600062000618620006128462000595565b62000576565b905082815260208101848484011115620006375762000636620004fb565b5b62000644848285620005cb565b509392505050565b600082601f830112620006645762000663620004f6565b5b81516200067684826020860162000601565b91505092915050565b600073ffffffffffffffffffffffffffffffffffffffff82169050919050565b6000620006ac826200067f565b9050919050565b620006be816200069f565b8114620006ca57600080fd5b50565b600081519050620006de81620006b3565b92915050565b60008060408385031215620006fe57620006fd620004ec565b5b600083015167ffffffffffffffff8111156200071f576200071e620004f1565b5b6200072d858286016200064c565b92505060206200074085828601620006cd565b9150509250929050565b600082825260208201905092915050565b7f455243323938313a20726f79616c7479206665652077696c6c2065786365656460008201527f2073616c65507269636500000000000000000000000000000000000000000000602082015250565b6000620007b9602a836200074a565b9150620007c6826200075b565b604082019050919050565b60006020820190508181036000830152620007ec81620007aa565b9050919050565b7f455243323938313a20696e76616c696420726563656976657200000000000000600082015250565b60006200082b6019836200074a565b91506200083882620007f3565b602082019050919050565b600060208201905081810360008301526200085e816200081c565b9050919050565b7f4e487b7100000000000000000000000000000000000000000000000000000000600052602260045260246000fd5b60006002820490506001821680620008ad57607f821691505b60208210811415620008c457620008c362000865565b5b50919050565b61399c80620008da6000396000f3fe608060405234801561001057600080fd5b50600436106101e55760003560e01c80637bddd65b1161010f578063dadaaf6a116100a2578063efd0cbf911610071578063efd0cbf91461057b578063f2fde38b14610597578063f72ba0fb146105b3578063fba7d7cb146105cf576101e5565b8063dadaaf6a146104f7578063e474def414610513578063e985e9c51461052f578063ed7c61f81461055f576101e5565b8063a22cb465116100de578063a22cb46514610471578063b88d4fde1461048d578063c87b56dd146104a9578063d5abeb01146104d9576101e5565b80637bddd65b146103fb5780638da5cb5b1461041757806395d89b411461043557806397583f9314610453576101e5565b806323b872dd11610187578063639814e011610156578063639814e014610373578063677cb3a41461039157806370a08231146103c1578063715018a6146103f1576101e5565b806323b872dd146102da5780632a55205a146102f657806342842e0e146103275780636352211e14610343576101e5565b8063081812fc116101c3578063081812fc14610254578063095ea7b31461028457806311f8e678146102a057806318160ddd146102bc576101e5565b806301ffc9a7146101ea57806304634d8d1461021a57806306fdde0314610236575b600080fd5b61020460048036038101906101ff91906129f2565b6105eb565b6040516102119190612a3a565b60405180910390f35b610234600480360381019061022f9190612af7565b6105fd565b005b61023e610613565b60405161024b9190612bd0565b60405180910390f35b61026e60048036038101906102699190612c28565b6106a5565b60405161027b9190612c64565b60405180910390f35b61029e60048036038101906102999190612c7f565b610724565b005b6102ba60048036038101906102b59190612c28565b610868565b005b6102c46108e6565b6040516102d19190612cce565b60405180910390f35b6102f460048036038101906102ef9190612ce9565b6108fd565b005b610310600480360381019061030b9190612d3c565b610c22565b60405161031e929190612d7c565b60405180910390f35b610341600480360381019061033c9190612ce9565b610e0d565b005b61035d60048036038101906103589190612c28565b610e2d565b60405161036a9190612c64565b60405180910390f35b61037b610e3f565b6040516103889190612cce565b60405180910390f35b6103ab60048036038101906103a69190612da5565b610e45565b6040516103b89190612cce565b60405180910390f35b6103db60048036038101906103d69190612da5565b610e8e565b6040516103e89190612cce565b60405180910390f35b6103f9610f47565b005b61041560048036038101906104109190612c28565b610f5b565b005b61041f610f6d565b60405161042c9190612c64565b60405180910390f35b61043d610f97565b60405161044a9190612bd0565b60405180910390f35b61045b611029565b6040516104689190612e49565b60405180910390f35b61048b60048036038101906104869190612e90565b61103c565b005b6104a760048036038101906104a29190613005565b6111b4565b005b6104c360048036038101906104be9190612c28565b611227565b6040516104d09190612bd0565b60405180910390f35b6104e16112c6565b6040516104ee9190612cce565b60405180910390f35b610511600480360381019061050c91906130be565b6112cc565b005b61052d60048036038101906105289190612da5565b6114ab565b005b6105496004803603810190610544919061312d565b6114f7565b6040516105569190612a3a565b60405180910390f35b610579600480360381019061057491906130be565b61158b565b005b61059560048036038101906105909190612c28565b61176a565b005b6105b160048036038101906105ac9190612da5565b6118e4565b005b6105cd60048036038101906105c89190612da5565b611968565b005b6105e960048036038101906105e49190612c28565b6119b4565b005b60006105f682611a16565b9050919050565b610605611a90565b61060f8282611b0e565b5050565b6060600280546106229061319c565b80601f016020809104026020016040519081016040528092919081815260200182805461064e9061319c565b801561069b5780601f106106705761010080835404028352916020019161069b565b820191906000526020600020905b81548152906001019060200180831161067e57829003601f168201915b5050505050905090565b60006106b082611ca4565b6106e6576040517fcf4700e400000000000000000000000000000000000000000000000000000000815260040160405180910390fd5b6006600083815260200190815260200160002060000160009054906101000a900473ffffffffffffffffffffffffffffffffffffffff169050919050565b600061072f82610e2d565b90508073ffffffffffffffffffffffffffffffffffffffff16610750611d03565b73ffffffffffffffffffffffffffffffffffffffff16146107b35761077c81610777611d03565b6114f7565b6107b2576040517fcfb3b94200000000000000000000000000000000000000000000000000000000815260040160405180910390fd5b5b826006600084815260200190815260200160002060000160006101000a81548173ffffffffffffffffffffffffffffffffffffffff021916908373ffffffffffffffffffffffffffffffffffffffff160217905550818373ffffffffffffffffffffffffffffffffffffffff168273ffffffffffffffffffffffffffffffffffffffff167f8c5be1e5ebec7d5bd14f71427d1e84f3dd0314c0f7b2291e5b200ac8c7c3b92560405160405180910390a4505050565b610870611a90565b7fdeea8c83876d38c3475282098f2f0d84388bd1ad0caa6448dd330dcbaf5dc9518160405161089f91906131ea565b60405180910390a18060048111156108ba576108b9612dd2565b5b600f60146101000a81548160ff021916908360048111156108de576108dd612dd2565b5b021790555050565b60006108f0611d0b565b6001546000540303905090565b600061090882611d10565b90508373ffffffffffffffffffffffffffffffffffffffff168173ffffffffffffffffffffffffffffffffffffffff161461096f576040517fa114810000000000000000000000000000000000000000000000000000000000815260040160405180910390fd5b60008061097b84611dde565b91509150610991818761098c611d03565b611e05565b6109dd576109a6866109a1611d03565b6114f7565b6109dc576040517f59c896be00000000000000000000000000000000000000000000000000000000815260040160405180910390fd5b5b600073ffffffffffffffffffffffffffffffffffffffff168573ffffffffffffffffffffffffffffffffffffffff161415610a44576040517fea553b3400000000000000000000000000000000000000000000000000000000815260040160405180910390fd5b610a518686866001611e49565b8015610a5c57600082555b600560008773ffffffffffffffffffffffffffffffffffffffff1673ffffffffffffffffffffffffffffffffffffffff168152602001908152602001600020600081546001900391905081905550600560008673ffffffffffffffffffffffffffffffffffffffff1673ffffffffffffffffffffffffffffffffffffffff1681526020019081526020016000206000815460010191905081905550610b2a85610b06888887611e4f565b7c020000000000000000000000000000000000000000000000000000000017611e77565b600460008681526020019081526020016000208190555060007c020000000000000000000000000000000000000000000000000000000084161415610bb2576000600185019050600060046000838152602001908152602001600020541415610bb0576000548114610baf578360046000838152602001908152602001600020819055505b5b505b838573ffffffffffffffffffffffffffffffffffffffff168773ffffffffffffffffffffffffffffffffffffffff167fddf252ad1be2c89b69c2b068fc378daa952ba7f163c4a11628f55a4df523b3ef60405160405180910390a4610c1a8686866001611ea2565b505050505050565b6000806000600960008681526020019081526020016000206040518060400160405290816000820160009054906101000a900473ffffffffffffffffffffffffffffffffffffffff1673ffffffffffffffffffffffffffffffffffffffff1673ffffffffffffffffffffffffffffffffffffffff1681526020016000820160149054906101000a90046bffffffffffffffffffffffff166bffffffffffffffffffffffff166bffffffffffffffffffffffff16815250509050600073ffffffffffffffffffffffffffffffffffffffff16816000015173ffffffffffffffffffffffffffffffffffffffff161415610db85760086040518060400160405290816000820160009054906101000a900473ffffffffffffffffffffffffffffffffffffffff1673ffffffffffffffffffffffffffffffffffffffff1673ffffffffffffffffffffffffffffffffffffffff1681526020016000820160149054906101000a90046bffffffffffffffffffffffff166bffffffffffffffffffffffff166bffffffffffffffffffffffff168152505090505b6000610dc2611ea8565b6bffffffffffffffffffffffff1682602001516bffffffffffffffffffffffff1686610dee9190613234565b610df891906132bd565b90508160000151819350935050509250929050565b610e28838383604051806020016040528060008152506111b4565b505050565b6000610e3882611d10565b9050919050565b600d5481565b6000601160008373ffffffffffffffffffffffffffffffffffffffff1673ffffffffffffffffffffffffffffffffffffffff168152602001908152602001600020549050919050565b60008073ffffffffffffffffffffffffffffffffffffffff168273ffffffffffffffffffffffffffffffffffffffff161415610ef6576040517f8f4eb60400000000000000000000000000000000000000000000000000000000815260040160405180910390fd5b67ffffffffffffffff600560008473ffffffffffffffffffffffffffffffffffffffff1673ffffffffffffffffffffffffffffffffffffffff16815260200190815260200160002054169050919050565b610f4f611a90565b610f596000611eb2565b565b610f63611a90565b80600d8190555050565b6000600a60009054906101000a900473ffffffffffffffffffffffffffffffffffffffff16905090565b606060038054610fa69061319c565b80601f0160208091040260200160405190810160405280929190818152602001828054610fd29061319c565b801561101f5780601f10610ff45761010080835404028352916020019161101f565b820191906000526020600020905b81548152906001019060200180831161100257829003601f168201915b5050505050905090565b600f60149054906101000a900460ff1681565b611044611d03565b73ffffffffffffffffffffffffffffffffffffffff168273ffffffffffffffffffffffffffffffffffffffff1614156110a9576040517fb06307db00000000000000000000000000000000000000000000000000000000815260040160405180910390fd5b80600760006110b6611d03565b73ffffffffffffffffffffffffffffffffffffffff1673ffffffffffffffffffffffffffffffffffffffff16815260200190815260200160002060008473ffffffffffffffffffffffffffffffffffffffff1673ffffffffffffffffffffffffffffffffffffffff16815260200190815260200160002060006101000a81548160ff0219169083151502179055508173ffffffffffffffffffffffffffffffffffffffff16611163611d03565b73ffffffffffffffffffffffffffffffffffffffff167f17307eab39ab6107e8899845ad3d59bd9653f200f220920489ca2b5937696c31836040516111a89190612a3a565b60405180910390a35050565b6111bf8484846108fd565b60008373ffffffffffffffffffffffffffffffffffffffff163b14611221576111ea84848484611f78565b611220576040517fd1a57ed600000000000000000000000000000000000000000000000000000000815260040160405180910390fd5b5b50505050565b606061123282611ca4565b611268576040517fa14c4b5000000000000000000000000000000000000000000000000000000000815260040160405180910390fd5b60006112726120d8565b905060008151141561129357604051806020016040528060008152506112be565b8061129d8461216a565b6040516020016112ae92919061332a565b6040516020818303038152906040525b915050919050565b600c5481565b82600c54816112d96108e6565b6112e3919061334e565b111561131b576040517ff577989700000000000000000000000000000000000000000000000000000000815260040160405180910390fd5b600d5481601160003373ffffffffffffffffffffffffffffffffffffffff1673ffffffffffffffffffffffffffffffffffffffff16815260200190815260200160002054611369919061334e565b11156113a0576040517eb50ce000000000000000000000000000000000000000000000000000000000815260040160405180910390fd5b600f60149054906101000a900460ff1660048111156113c2576113c1612dd2565b5b600260048111156113d6576113d5612dd2565b5b1461143957600f60149054906101000a900460ff1660048111156113fd576113fc612dd2565b5b6040517fba36bad60000000000000000000000000000000000000000000000000000000081526004016114309190612cce565b60405180910390fd5b611466600f60009054906101000a900473ffffffffffffffffffffffffffffffffffffffff1684846121ba565b61149c576040517f976fa85200000000000000000000000000000000000000000000000000000000815260040160405180910390fd5b6114a584612205565b50505050565b6114b3611a90565b80600e60006101000a81548173ffffffffffffffffffffffffffffffffffffffff021916908373ffffffffffffffffffffffffffffffffffffffff16021790555050565b6000600760008473ffffffffffffffffffffffffffffffffffffffff1673ffffffffffffffffffffffffffffffffffffffff16815260200190815260200160002060008373ffffffffffffffffffffffffffffffffffffffff1673ffffffffffffffffffffffffffffffffffffffff16815260200190815260200160002060009054906101000a900460ff16905092915050565b82600c54816115986108e6565b6115a2919061334e565b11156115da576040517ff577989700000000000000000000000000000000000000000000000000000000815260040160405180910390fd5b600d5481601160003373ffffffffffffffffffffffffffffffffffffffff1673ffffffffffffffffffffffffffffffffffffffff16815260200190815260200160002054611628919061334e565b111561165f576040517eb50ce000000000000000000000000000000000000000000000000000000000815260040160405180910390fd5b600f60149054906101000a900460ff16600481111561168157611680612dd2565b5b6001600481111561169557611694612dd2565b5b146116f857600f60149054906101000a900460ff1660048111156116bc576116bb612dd2565b5b6040517fba36bad60000000000000000000000000000000000000000000000000000000081526004016116ef9190612cce565b60405180910390fd5b611725600e60009054906101000a900473ffffffffffffffffffffffffffffffffffffffff1684846121ba565b61175b576040517f976fa85200000000000000000000000000000000000000000000000000000000815260040160405180910390fd5b61176484612205565b50505050565b80600c54816117776108e6565b611781919061334e565b11156117b9576040517ff577989700000000000000000000000000000000000000000000000000000000815260040160405180910390fd5b600d5481601160003373ffffffffffffffffffffffffffffffffffffffff1673ffffffffffffffffffffffffffffffffffffffff16815260200190815260200160002054611807919061334e565b111561183e576040517eb50ce000000000000000000000000000000000000000000000000000000000815260040160405180910390fd5b600f60149054906101000a900460ff1660048111156118605761185f612dd2565b5b6003600481111561187457611873612dd2565b5b146118d757600f60149054906101000a900460ff16600481111561189b5761189a612dd2565b5b6040517fba36bad60000000000000000000000000000000000000000000000000000000081526004016118ce9190612cce565b60405180910390fd5b6118e082612205565b5050565b6118ec611a90565b600073ffffffffffffffffffffffffffffffffffffffff168173ffffffffffffffffffffffffffffffffffffffff16141561195c576040517f08c379a000000000000000000000000000000000000000000000000000000000815260040161195390613416565b60405180910390fd5b61196581611eb2565b50565b611970611a90565b80600f60006101000a81548173ffffffffffffffffffffffffffffffffffffffff021916908373ffffffffffffffffffffffffffffffffffffffff16021790555050565b6119bc611a90565b806119c56108e6565b6119cf919061334e565b600c5411611a09576040517ff577989700000000000000000000000000000000000000000000000000000000815260040160405180910390fd5b611a133382612268565b50565b60007f2a55205a000000000000000000000000000000000000000000000000000000007bffffffffffffffffffffffffffffffffffffffffffffffffffffffff1916827bffffffffffffffffffffffffffffffffffffffffffffffffffffffff19161480611a895750611a8882612286565b5b9050919050565b611a986122f0565b73ffffffffffffffffffffffffffffffffffffffff16611ab6610f6d565b73ffffffffffffffffffffffffffffffffffffffff1614611b0c576040517f08c379a0000000000000000000000000000000000000000000000000000000008152600401611b0390613482565b60405180910390fd5b565b611b16611ea8565b6bffffffffffffffffffffffff16816bffffffffffffffffffffffff161115611b74576040517f08c379a0000000000000000000000000000000000000000000000000000000008152600401611b6b90613514565b60405180910390fd5b600073ffffffffffffffffffffffffffffffffffffffff168273ffffffffffffffffffffffffffffffffffffffff161415611be4576040517f08c379a0000000000000000000000000000000000000000000000000000000008152600401611bdb90613580565b60405180910390fd5b60405180604001604052808373ffffffffffffffffffffffffffffffffffffffff168152602001826bffffffffffffffffffffffff16815250600860008201518160000160006101000a81548173ffffffffffffffffffffffffffffffffffffffff021916908373ffffffffffffffffffffffffffffffffffffffff16021790555060208201518160000160146101000a8154816bffffffffffffffffffffffff02191690836bffffffffffffffffffffffff1602179055509050505050565b600081611caf611d0b565b11158015611cbe575060005482105b8015611cfc575060007c0100000000000000000000000000000000000000000000000000000000600460008581526020019081526020016000205416145b9050919050565b600033905090565b600090565b60008082905080611d1f611d0b565b11611da757600054811015611da65760006004600083815260200190815260200160002054905060007c010000000000000000000000000000000000000000000000000000000082161415611da4575b6000811415611d9a576004600083600190039350838152602001908152602001600020549050611d6f565b8092505050611dd9565b505b5b6040517fdf2d9b4200000000000000000000000000000000000000000000000000000000815260040160405180910390fd5b919050565b60008060006006600085815260200190815260200160002090508092508254915050915091565b600073ffffffffffffffffffffffffffffffffffffffff8316925073ffffffffffffffffffffffffffffffffffffffff821691508382148383141790509392505050565b50505050565b60008060e883901c905060e8611e668686846122f8565b62ffffff16901b9150509392505050565b600073ffffffffffffffffffffffffffffffffffffffff83169250814260a01b178317905092915050565b50505050565b6000612710905090565b6000600a60009054906101000a900473ffffffffffffffffffffffffffffffffffffffff16905081600a60006101000a81548173ffffffffffffffffffffffffffffffffffffffff021916908373ffffffffffffffffffffffffffffffffffffffff1602179055508173ffffffffffffffffffffffffffffffffffffffff168173ffffffffffffffffffffffffffffffffffffffff167f8be0079c531659141344cd1fd0a4f28419497f9722a3daafe3b4186f6b6457e060405160405180910390a35050565b60008373ffffffffffffffffffffffffffffffffffffffff1663150b7a02611f9e611d03565b8786866040518563ffffffff1660e01b8152600401611fc094939291906135f5565b602060405180830381600087803b158015611fda57600080fd5b505af192505050801561200b57506040513d601f19601f820116820180604052508101906120089190613656565b60015b612085573d806000811461203b576040519150601f19603f3d011682016040523d82523d6000602084013e612040565b606091505b5060008151141561207d576040517fd1a57ed600000000000000000000000000000000000000000000000000000000815260040160405180910390fd5b805181602001fd5b63150b7a0260e01b7bffffffffffffffffffffffffffffffffffffffffffffffffffffffff1916817bffffffffffffffffffffffffffffffffffffffffffffffffffffffff191614915050949350505050565b6060601080546120e79061319c565b80601f01602080910402602001604051908101604052809291908181526020018280546121139061319c565b80156121605780601f1061213557610100808354040283529160200191612160565b820191906000526020600020905b81548152906001019060200180831161214357829003601f168201915b5050505050905090565b606060806040510190508060405280825b6001156121a657600183039250600a81066030018353600a81049050806121a1576121a6565b61217b565b508181036020830392508083525050919050565b60008373ffffffffffffffffffffffffffffffffffffffff166121e56121df85612301565b84612331565b73ffffffffffffffffffffffffffffffffffffffff161490509392505050565b80601160003373ffffffffffffffffffffffffffffffffffffffff1673ffffffffffffffffffffffffffffffffffffffff1681526020019081526020016000206000828254612254919061334e565b925050819055506122653382612268565b50565b612282828260405180602001604052806000815250612358565b5050565b60007f01ffc9a7000000000000000000000000000000000000000000000000000000007bffffffffffffffffffffffffffffffffffffffffffffffffffffffff1916827bffffffffffffffffffffffffffffffffffffffffffffffffffffffff1916149050919050565b600033905090565b60009392505050565b60008160405160200161231491906136f0565b604051602081830303815290604052805190602001209050919050565b600080600061234085856123f5565b9150915061234d81612478565b819250505092915050565b612362838361264d565b60008373ffffffffffffffffffffffffffffffffffffffff163b146123f057600080549050600083820390505b6123a26000868380600101945086611f78565b6123d8576040517fd1a57ed600000000000000000000000000000000000000000000000000000000815260040160405180910390fd5b81811061238f5781600054146123ed57600080fd5b50505b505050565b6000806041835114156124375760008060006020860151925060408601519150606086015160001a905061242b8782858561280a565b94509450505050612471565b60408351141561246857600080602085015191506040850151905061245d868383612917565b935093505050612471565b60006002915091505b9250929050565b6000600481111561248c5761248b612dd2565b5b81600481111561249f5761249e612dd2565b5b14156124aa5761264a565b600160048111156124be576124bd612dd2565b5b8160048111156124d1576124d0612dd2565b5b1415612512576040517f08c379a000000000000000000000000000000000000000000000000000000000815260040161250990613762565b60405180910390fd5b6002600481111561252657612525612dd2565b5b81600481111561253957612538612dd2565b5b141561257a576040517f08c379a0000000000000000000000000000000000000000000000000000000008152600401612571906137ce565b60405180910390fd5b6003600481111561258e5761258d612dd2565b5b8160048111156125a1576125a0612dd2565b5b14156125e2576040517f08c379a00000000000000000000000000000000000000000000000000000000081526004016125d990613860565b60405180910390fd5b6004808111156125f5576125f4612dd2565b5b81600481111561260857612607612dd2565b5b1415612649576040517f08c379a0000000000000000000000000000000000000000000000000000000008152600401612640906138f2565b60405180910390fd5b5b50565b600080549050600082141561268e576040517fb562e8dd00000000000000000000000000000000000000000000000000000000815260040160405180910390fd5b61269b6000848385611e49565b600160406001901b178202600560008573ffffffffffffffffffffffffffffffffffffffff1673ffffffffffffffffffffffffffffffffffffffff16815260200190815260200160002060008282540192505081905550612712836127036000866000611e4f565b61270c85612976565b17611e77565b6004600083815260200190815260200160002081905550600080838301905073ffffffffffffffffffffffffffffffffffffffff85169150828260007fddf252ad1be2c89b69c2b068fc378daa952ba7f163c4a11628f55a4df523b3ef600080a4600183015b8181146127b357808360007fddf252ad1be2c89b69c2b068fc378daa952ba7f163c4a11628f55a4df523b3ef600080a4600181019050612778565b5060008214156127ef576040517f2e07630000000000000000000000000000000000000000000000000000000000815260040160405180910390fd5b8060008190555050506128056000848385611ea2565b505050565b6000807f7fffffffffffffffffffffffffffffff5d576e7357a4501ddfe92f46681b20a08360001c111561284557600060039150915061290e565b601b8560ff161415801561285d5750601c8560ff1614155b1561286f57600060049150915061290e565b6000600187878787604051600081526020016040526040516128949493929190613921565b6020604051602081039080840390855afa1580156128b6573d6000803e3d6000fd5b505050602060405103519050600073ffffffffffffffffffffffffffffffffffffffff168173ffffffffffffffffffffffffffffffffffffffff1614156129055760006001925092505061290e565b80600092509250505b94509492505050565b60008060007f7fffffffffffffffffffffffffffffffffffffffffffffffffffffffffffffff60001b841690506000601b60ff8660001c901c61295a919061334e565b90506129688782888561280a565b935093505050935093915050565b60006001821460e11b9050919050565b6000604051905090565b600080fd5b600080fd5b60007fffffffff0000000000000000000000000000000000000000000000000000000082169050919050565b6129cf8161299a565b81146129da57600080fd5b50565b6000813590506129ec816129c6565b92915050565b600060208284031215612a0857612a07612990565b5b6000612a16848285016129dd565b91505092915050565b60008115159050919050565b612a3481612a1f565b82525050565b6000602082019050612a4f6000830184612a2b565b92915050565b600073ffffffffffffffffffffffffffffffffffffffff82169050919050565b6000612a8082612a55565b9050919050565b612a9081612a75565b8114612a9b57600080fd5b50565b600081359050612aad81612a87565b92915050565b60006bffffffffffffffffffffffff82169050919050565b612ad481612ab3565b8114612adf57600080fd5b50565b600081359050612af181612acb565b92915050565b60008060408385031215612b0e57612b0d612990565b5b6000612b1c85828601612a9e565b9250506020612b2d85828601612ae2565b9150509250929050565b600081519050919050565b600082825260208201905092915050565b60005b83811015612b71578082015181840152602081019050612b56565b83811115612b80576000848401525b50505050565b6000601f19601f8301169050919050565b6000612ba282612b37565b612bac8185612b42565b9350612bbc818560208601612b53565b612bc581612b86565b840191505092915050565b60006020820190508181036000830152612bea8184612b97565b905092915050565b6000819050919050565b612c0581612bf2565b8114612c1057600080fd5b50565b600081359050612c2281612bfc565b92915050565b600060208284031215612c3e57612c3d612990565b5b6000612c4c84828501612c13565b91505092915050565b612c5e81612a75565b82525050565b6000602082019050612c796000830184612c55565b92915050565b60008060408385031215612c9657612c95612990565b5b6000612ca485828601612a9e565b9250506020612cb585828601612c13565b9150509250929050565b612cc881612bf2565b82525050565b6000602082019050612ce36000830184612cbf565b92915050565b600080600060608486031215612d0257612d01612990565b5b6000612d1086828701612a9e565b9350506020612d2186828701612a9e565b9250506040612d3286828701612c13565b9150509250925092565b60008060408385031215612d5357612d52612990565b5b6000612d6185828601612c13565b9250506020612d7285828601612c13565b9150509250929050565b6000604082019050612d916000830185612c55565b612d9e6020830184612cbf565b9392505050565b600060208284031215612dbb57612dba612990565b5b6000612dc984828501612a9e565b91505092915050565b7f4e487b7100000000000000000000000000000000000000000000000000000000600052602160045260246000fd5b60058110612e1257612e11612dd2565b5b50565b6000819050612e2382612e01565b919050565b6000612e3382612e15565b9050919050565b612e4381612e28565b82525050565b6000602082019050612e5e6000830184612e3a565b92915050565b612e6d81612a1f565b8114612e7857600080fd5b50565b600081359050612e8a81612e64565b92915050565b60008060408385031215612ea757612ea6612990565b5b6000612eb585828601612a9e565b9250506020612ec685828601612e7b565b9150509250929050565b600080fd5b600080fd5b7f4e487b7100000000000000000000000000000000000000000000000000000000600052604160045260246000fd5b612f1282612b86565b810181811067ffffffffffffffff82111715612f3157612f30612eda565b5b80604052505050565b6000612f44612986565b9050612f508282612f09565b919050565b600067ffffffffffffffff821115612f7057612f6f612eda565b5b612f7982612b86565b9050602081019050919050565b82818337600083830152505050565b6000612fa8612fa384612f55565b612f3a565b905082815260208101848484011115612fc457612fc3612ed5565b5b612fcf848285612f86565b509392505050565b600082601f830112612fec57612feb612ed0565b5b8135612ffc848260208601612f95565b91505092915050565b6000806000806080858703121561301f5761301e612990565b5b600061302d87828801612a9e565b945050602061303e87828801612a9e565b935050604061304f87828801612c13565b925050606085013567ffffffffffffffff8111156130705761306f612995565b5b61307c87828801612fd7565b91505092959194509250565b6000819050919050565b61309b81613088565b81146130a657600080fd5b50565b6000813590506130b881613092565b92915050565b6000806000606084860312156130d7576130d6612990565b5b60006130e586828701612c13565b93505060206130f6868287016130a9565b925050604084013567ffffffffffffffff81111561311757613116612995565b5b61312386828701612fd7565b9150509250925092565b6000806040838503121561314457613143612990565b5b600061315285828601612a9e565b925050602061316385828601612a9e565b9150509250929050565b7f4e487b7100000000000000000000000000000000000000000000000000000000600052602260045260246000fd5b600060028204905060018216806131b457607f821691505b602082108114156131c8576131c761316d565b5b50919050565b600060ff82169050919050565b6131e4816131ce565b82525050565b60006020820190506131ff60008301846131db565b92915050565b7f4e487b7100000000000000000000000000000000000000000000000000000000600052601160045260246000fd5b600061323f82612bf2565b915061324a83612bf2565b9250817fffffffffffffffffffffffffffffffffffffffffffffffffffffffffffffffff048311821515161561328357613282613205565b5b828202905092915050565b7f4e487b7100000000000000000000000000000000000000000000000000000000600052601260045260246000fd5b60006132c882612bf2565b91506132d383612bf2565b9250826132e3576132e261328e565b5b828204905092915050565b600081905092915050565b600061330482612b37565b61330e81856132ee565b935061331e818560208601612b53565b80840191505092915050565b600061333682856132f9565b915061334282846132f9565b91508190509392505050565b600061335982612bf2565b915061336483612bf2565b9250827fffffffffffffffffffffffffffffffffffffffffffffffffffffffffffffffff0382111561339957613398613205565b5b828201905092915050565b7f4f776e61626c653a206e6577206f776e657220697320746865207a65726f206160008201527f6464726573730000000000000000000000000000000000000000000000000000602082015250565b6000613400602683612b42565b915061340b826133a4565b604082019050919050565b6000602082019050818103600083015261342f816133f3565b9050919050565b7f4f776e61626c653a2063616c6c6572206973206e6f7420746865206f776e6572600082015250565b600061346c602083612b42565b915061347782613436565b602082019050919050565b6000602082019050818103600083015261349b8161345f565b9050919050565b7f455243323938313a20726f79616c7479206665652077696c6c2065786365656460008201527f2073616c65507269636500000000000000000000000000000000000000000000602082015250565b60006134fe602a83612b42565b9150613509826134a2565b604082019050919050565b6000602082019050818103600083015261352d816134f1565b9050919050565b7f455243323938313a20696e76616c696420726563656976657200000000000000600082015250565b600061356a601983612b42565b915061357582613534565b602082019050919050565b600060208201905081810360008301526135998161355d565b9050919050565b600081519050919050565b600082825260208201905092915050565b60006135c7826135a0565b6135d181856135ab565b93506135e1818560208601612b53565b6135ea81612b86565b840191505092915050565b600060808201905061360a6000830187612c55565b6136176020830186612c55565b6136246040830185612cbf565b818103606083015261363681846135bc565b905095945050505050565b600081519050613650816129c6565b92915050565b60006020828403121561366c5761366b612990565b5b600061367a84828501613641565b91505092915050565b7f19457468657265756d205369676e6564204d6573736167653a0a333200000000600082015250565b60006136b9601c836132ee565b91506136c482613683565b601c82019050919050565b6000819050919050565b6136ea6136e582613088565b6136cf565b82525050565b60006136fb826136ac565b915061370782846136d9565b60208201915081905092915050565b7f45434453413a20696e76616c6964207369676e61747572650000000000000000600082015250565b600061374c601883612b42565b915061375782613716565b602082019050919050565b6000602082019050818103600083015261377b8161373f565b9050919050565b7f45434453413a20696e76616c6964207369676e6174757265206c656e67746800600082015250565b60006137b8601f83612b42565b91506137c382613782565b602082019050919050565b600060208201905081810360008301526137e7816137ab565b9050919050565b7f45434453413a20696e76616c6964207369676e6174757265202773272076616c60008201527f7565000000000000000000000000000000000000000000000000000000000000602082015250565b600061384a602283612b42565b9150613855826137ee565b604082019050919050565b600060208201905081810360008301526138798161383d565b9050919050565b7f45434453413a20696e76616c6964207369676e6174757265202776272076616c60008201527f7565000000000000000000000000000000000000000000000000000000000000602082015250565b60006138dc602283612b42565b91506138e782613880565b604082019050919050565b6000602082019050818103600083015261390b816138cf565b9050919050565b61391b81613088565b82525050565b60006080820190506139366000830187613912565b61394360208301866131db565b6139506040830185613912565b61395d6060830184613912565b9594505050505056fea264697066735822122063283eaac43b4c21648e0da267d50848fb9f8aad6c82084bec7bbf372af0921d64736f6c63430008090033",
  "devdoc": {
    "kind": "dev",
    "methods": {
      "approve(address,uint256)": {
        "details": "Gives permission to `to` to transfer `tokenId` token to another account. The approval is cleared when the token is transferred. Only a single account can be approved at a time, so approving the zero address clears previous approvals. Requirements: - The caller must own the token or be an approved operator. - `tokenId` must exist. Emits an {Approval} event."
      },
      "balanceOf(address)": {
        "details": "Returns the number of tokens in `owner`'s account."
      },
      "getApproved(uint256)": {
        "details": "Returns the account approved for `tokenId` token. Requirements: - `tokenId` must exist."
      },
      "isApprovedForAll(address,address)": {
        "details": "Returns if the `operator` is allowed to manage all of the assets of `owner`. See {setApprovalForAll}."
      },
      "name()": {
        "details": "Returns the token collection name."
      },
      "owner()": {
        "details": "Returns the address of the current owner."
      },
      "ownerOf(uint256)": {
        "details": "Returns the owner of the `tokenId` token. Requirements: - `tokenId` must exist."
      },
      "renounceOwnership()": {
        "details": "Leaves the contract without owner. It will not be possible to call `onlyOwner` functions anymore. Can only be called by the current owner. NOTE: Renouncing ownership will leave the contract without an owner, thereby removing any functionality that is only available to the owner."
      },
      "royaltyInfo(uint256,uint256)": {
        "details": "Returns how much royalty is owed and to whom, based on a sale price that may be denominated in any unit of exchange. The royalty amount is denominated and should be paid in that same unit of exchange."
      },
      "safeTransferFrom(address,address,uint256)": {
        "details": "Equivalent to `safeTransferFrom(from, to, tokenId, '')`."
      },
      "safeTransferFrom(address,address,uint256,bytes)": {
        "details": "Safely transfers `tokenId` token from `from` to `to`. Requirements: - `from` cannot be the zero address. - `to` cannot be the zero address. - `tokenId` token must exist and be owned by `from`. - If the caller is not `from`, it must be approved to move this token by either {approve} or {setApprovalForAll}. - If `to` refers to a smart contract, it must implement {IERC721Receiver-onERC721Received}, which is called upon a safe transfer. Emits a {Transfer} event."
      },
      "setApprovalForAll(address,bool)": {
        "details": "Approve or remove `operator` as an operator for the caller. Operators can call {transferFrom} or {safeTransferFrom} for any token owned by the caller. Requirements: - The `operator` cannot be the caller. Emits an {ApprovalForAll} event."
      },
      "symbol()": {
        "details": "Returns the token collection symbol."
      },
      "tokenURI(uint256)": {
        "details": "Returns the Uniform Resource Identifier (URI) for `tokenId` token."
      },
      "totalSupply()": {
        "details": "Returns the total number of tokens in existence. Burned tokens will reduce the count. To get the total number of tokens minted, please see {_totalMinted}."
      },
      "transferFrom(address,address,uint256)": {
        "details": "Transfers `tokenId` from `from` to `to`. Requirements: - `from` cannot be the zero address. - `to` cannot be the zero address. - `tokenId` token must be owned by `from`. - If the caller is not `from`, it must be approved to move this token by either {approve} or {setApprovalForAll}. Emits a {Transfer} event."
      },
      "transferOwnership(address)": {
        "details": "Transfers ownership of the contract to a new account (`newOwner`). Can only be called by the current owner."
      }
    },
    "version": 1
  },
  "userdoc": {
    "errors": {
      "ApprovalCallerNotOwnerNorApproved()": [
        {
          "notice": "The caller must own the token or be an approved operator."
        }
      ],
      "ApprovalQueryForNonexistentToken()": [
        {
          "notice": "The token does not exist."
        }
      ],
      "ApproveToCaller()": [
        {
          "notice": "The caller cannot approve to their own address."
        }
      ],
      "BalanceQueryForZeroAddress()": [
        {
          "notice": "Cannot query the balance for the zero address."
        }
      ],
      "MintERC2309QuantityExceedsLimit()": [
        {
          "notice": "The `quantity` minted with ERC2309 exceeds the safety limit."
        }
      ],
      "MintToZeroAddress()": [
        {
          "notice": "Cannot mint to the zero address."
        }
      ],
      "MintZeroQuantity()": [
        {
          "notice": "The quantity of tokens minted must be more than zero."
        }
      ],
      "OwnerQueryForNonexistentToken()": [
        {
          "notice": "The token does not exist."
        }
      ],
      "OwnershipNotInitializedForExtraData()": [
        {
          "notice": "The `extraData` cannot be set on an unintialized ownership slot."
        }
      ],
      "TransferCallerNotOwnerNorApproved()": [
        {
          "notice": "The caller must own the token or be an approved operator."
        }
      ],
      "TransferFromIncorrectOwner()": [
        {
          "notice": "The token must be owned by `from`."
        }
      ],
      "TransferToNonERC721ReceiverImplementer()": [
        {
          "notice": "Cannot safely transfer to a contract that does not implement the ERC721Receiver interface."
        }
      ],
      "TransferToZeroAddress()": [
        {
          "notice": "Cannot transfer to the zero address."
        }
      ],
      "URIQueryForNonexistentToken()": [
        {
          "notice": "The token does not exist."
        }
      ]
    },
    "kind": "user",
    "methods": {},
    "version": 1
  },
  "storageLayout": {
    "storage": [
      {
        "astId": 1948,
        "contract": "contracts/Movebirds.sol:Movebirds",
        "label": "_currentIndex",
        "offset": 0,
        "slot": "0",
        "type": "t_uint256"
      },
      {
        "astId": 1950,
        "contract": "contracts/Movebirds.sol:Movebirds",
        "label": "_burnCounter",
        "offset": 0,
        "slot": "1",
        "type": "t_uint256"
      },
      {
        "astId": 1952,
        "contract": "contracts/Movebirds.sol:Movebirds",
        "label": "_name",
        "offset": 0,
        "slot": "2",
        "type": "t_string_storage"
      },
      {
        "astId": 1954,
        "contract": "contracts/Movebirds.sol:Movebirds",
        "label": "_symbol",
        "offset": 0,
        "slot": "3",
        "type": "t_string_storage"
      },
      {
        "astId": 1958,
        "contract": "contracts/Movebirds.sol:Movebirds",
        "label": "_packedOwnerships",
        "offset": 0,
        "slot": "4",
        "type": "t_mapping(t_uint256,t_uint256)"
      },
      {
        "astId": 1962,
        "contract": "contracts/Movebirds.sol:Movebirds",
        "label": "_packedAddressData",
        "offset": 0,
        "slot": "5",
        "type": "t_mapping(t_address,t_uint256)"
      },
      {
        "astId": 1967,
        "contract": "contracts/Movebirds.sol:Movebirds",
        "label": "_tokenApprovals",
        "offset": 0,
        "slot": "6",
        "type": "t_mapping(t_uint256,t_struct(TokenApprovalRef)1880_storage)"
      },
      {
        "astId": 1973,
        "contract": "contracts/Movebirds.sol:Movebirds",
        "label": "_operatorApprovals",
        "offset": 0,
        "slot": "7",
        "type": "t_mapping(t_address,t_mapping(t_address,t_bool))"
      },
      {
        "astId": 202,
        "contract": "contracts/Movebirds.sol:Movebirds",
        "label": "_defaultRoyaltyInfo",
        "offset": 0,
        "slot": "8",
        "type": "t_struct(RoyaltyInfo)199_storage"
      },
      {
        "astId": 207,
        "contract": "contracts/Movebirds.sol:Movebirds",
        "label": "_tokenRoyaltyInfo",
        "offset": 0,
        "slot": "9",
        "type": "t_mapping(t_uint256,t_struct(RoyaltyInfo)199_storage)"
      },
      {
        "astId": 7,
        "contract": "contracts/Movebirds.sol:Movebirds",
        "label": "_owner",
        "offset": 0,
        "slot": "10",
        "type": "t_address"
      },
      {
        "astId": 156,
        "contract": "contracts/Movebirds.sol:Movebirds",
        "label": "_status",
        "offset": 0,
        "slot": "11",
        "type": "t_uint256"
      },
      {
        "astId": 1498,
        "contract": "contracts/Movebirds.sol:Movebirds",
        "label": "maxSupply",
        "offset": 0,
        "slot": "12",
        "type": "t_uint256"
      },
      {
        "astId": 1501,
        "contract": "contracts/Movebirds.sol:Movebirds",
        "label": "maxPerAddress",
        "offset": 0,
        "slot": "13",
        "type": "t_uint256"
      },
      {
        "astId": 1503,
        "contract": "contracts/Movebirds.sol:Movebirds",
        "label": "signerAddressAllowlist",
        "offset": 0,
        "slot": "14",
        "type": "t_address"
      },
      {
        "astId": 1505,
        "contract": "contracts/Movebirds.sol:Movebirds",
        "label": "signerAddressWaitlist",
        "offset": 0,
        "slot": "15",
        "type": "t_address"
      },
      {
        "astId": 1510,
        "contract": "contracts/Movebirds.sol:Movebirds",
        "label": "s_saleStage",
        "offset": 20,
        "slot": "15",
        "type": "t_enum(SaleStage)1495"
      },
      {
        "astId": 1512,
        "contract": "contracts/Movebirds.sol:Movebirds",
        "label": "s_baseTokenUri",
        "offset": 0,
        "slot": "16",
        "type": "t_string_storage"
      },
      {
        "astId": 1516,
        "contract": "contracts/Movebirds.sol:Movebirds",
        "label": "s_tokensClaimed",
        "offset": 0,
        "slot": "17",
        "type": "t_mapping(t_address,t_uint256)"
      }
    ],
    "types": {
      "t_address": {
        "encoding": "inplace",
        "label": "address",
        "numberOfBytes": "20"
      },
      "t_bool": {
        "encoding": "inplace",
        "label": "bool",
        "numberOfBytes": "1"
      },
      "t_enum(SaleStage)1495": {
        "encoding": "inplace",
        "label": "enum Movebirds.SaleStage",
        "numberOfBytes": "1"
      },
      "t_mapping(t_address,t_bool)": {
        "encoding": "mapping",
        "key": "t_address",
        "label": "mapping(address => bool)",
        "numberOfBytes": "32",
        "value": "t_bool"
      },
      "t_mapping(t_address,t_mapping(t_address,t_bool))": {
        "encoding": "mapping",
        "key": "t_address",
        "label": "mapping(address => mapping(address => bool))",
        "numberOfBytes": "32",
        "value": "t_mapping(t_address,t_bool)"
      },
      "t_mapping(t_address,t_uint256)": {
        "encoding": "mapping",
        "key": "t_address",
        "label": "mapping(address => uint256)",
        "numberOfBytes": "32",
        "value": "t_uint256"
      },
      "t_mapping(t_uint256,t_struct(RoyaltyInfo)199_storage)": {
        "encoding": "mapping",
        "key": "t_uint256",
        "label": "mapping(uint256 => struct ERC2981.RoyaltyInfo)",
        "numberOfBytes": "32",
        "value": "t_struct(RoyaltyInfo)199_storage"
      },
      "t_mapping(t_uint256,t_struct(TokenApprovalRef)1880_storage)": {
        "encoding": "mapping",
        "key": "t_uint256",
        "label": "mapping(uint256 => struct ERC721A.TokenApprovalRef)",
        "numberOfBytes": "32",
        "value": "t_struct(TokenApprovalRef)1880_storage"
      },
      "t_mapping(t_uint256,t_uint256)": {
        "encoding": "mapping",
        "key": "t_uint256",
        "label": "mapping(uint256 => uint256)",
        "numberOfBytes": "32",
        "value": "t_uint256"
      },
      "t_string_storage": {
        "encoding": "bytes",
        "label": "string",
        "numberOfBytes": "32"
      },
      "t_struct(RoyaltyInfo)199_storage": {
        "encoding": "inplace",
        "label": "struct ERC2981.RoyaltyInfo",
        "members": [
          {
            "astId": 196,
            "contract": "contracts/Movebirds.sol:Movebirds",
            "label": "receiver",
            "offset": 0,
            "slot": "0",
            "type": "t_address"
          },
          {
            "astId": 198,
            "contract": "contracts/Movebirds.sol:Movebirds",
            "label": "royaltyFraction",
            "offset": 20,
            "slot": "0",
            "type": "t_uint96"
          }
        ],
        "numberOfBytes": "32"
      },
      "t_struct(TokenApprovalRef)1880_storage": {
        "encoding": "inplace",
        "label": "struct ERC721A.TokenApprovalRef",
        "members": [
          {
            "astId": 1879,
            "contract": "contracts/Movebirds.sol:Movebirds",
            "label": "value",
            "offset": 0,
            "slot": "0",
            "type": "t_address"
          }
        ],
        "numberOfBytes": "32"
      },
      "t_uint256": {
        "encoding": "inplace",
        "label": "uint256",
        "numberOfBytes": "32"
      },
      "t_uint96": {
        "encoding": "inplace",
        "label": "uint96",
        "numberOfBytes": "12"
      }
    }
  }
}